:020000040800F2
:10000000E03900204501000853110008250D0008C3
:1000100051110008C50A0008051B00080000000077
:1000200000000000000000000000000001160008B1
:10003000C70A0008000000001B150008D9160008B8
:100040005F0100085F0100085F0100085F01000810
:100050005F0100085F0100085F0100085F01000800
:100060005F0100085F0100085F0100085F010008F0
:100070005F0100085F0100085F0100085F010008E0
:100080005F0100085F0100085F0100085F010008D0
:100090005F0100085F0100085F0100085F010008C0
:1000A0005F0100085F0100085F0100085F010008B0
:1000B0002D1700085F0100085F0100085F010008BC
:1000C0005F0100085F0100085F0100085F01000890
:1000D0005F010008BD1800085F0100085F0100080B
:1000E0005F0100085F0100085F0100085F01000870
:1000F0005F0100085F0100085F0100085F01000860
:100100005F0100085F0100085F0100085F0100084F
:100110005F0100085F0100085F0100085F0100083F
:100120005F0100085F0100085F0100085F0100082F
:10013000DFF80CD000F0B4FC00480047BD2A0008EE
:10014000E03900200648804706480047FEE7FEE702
:10015000FEE7FEE7FEE7FEE7FEE7FEE7FEE7FEE777
:10016000DD16000831010008F0B480EA0102D40F66
:100170004200B2EB410F02D20246084611464A0045
:1001800042D0C30DDDB2C1F3C752AD1A202D35DA0E
:10019000C1F3160141F4000204B15242C5F1200638
:1001A00002FA06F12A411044B3EBD05F23D0C4B168
:1001B000012DA0EBC35009DCF0BC4FF0004202EA75
:1001C000C352DBB200F5000000F097BB400000F125
:1001D000807000EBC350A0F1807040EAD1704900FC
:1001E00009E0490841EAC071A0EBC35000F50000E6
:1001F000400800EBC350F0BC00F076BB6142012226
:1002000002EB4101001BF6E7F0BC704781F00041B2
:10021000AAE780F00040A7E780EA010210B502F0EB
:100220000043400022D04A001FD0010E01EB1261B2
:10023000C0F35600C2F3560240F4000042F400023C
:10024000A0FB022000047F39140400D0401C50EAB7
:10025000124001D44000491EC2B20C0604EBD0107B
:10026000401C4008802A02D003E0002010BD20F08E
:100270000100002900DA0020184310BD30B480EAE4
:10028000010202F0004530F0004221F0004013D09E
:1002900090B1C30DD40DC2F31601C0F31600E41AD9
:1002A00041F4000140F400027D34914201D3641C0A
:1002B00000E04900002C02DA30BC002070474FF407
:1002C00000000023914201D3891A034340084FEAFA
:1002D0004101F7D151B1914202D14FF0004105E007
:1002E00002D24FF0010101E06FF0010103EBC450B5
:1002F000284430BC00F0F8BA420005D0C0F3C75221
:100300005242914201DC0020704700EBC15070471F
:100310002DE9FE4F804681EA0300C00F0C46009095
:1003200021F0004123F00045B8EB0200A94105D2BD
:100330004046214690461C460B46024623F00040AC
:10034000104347D0270DC7F30A00C3F30A510290A8
:10035000401A019040286BDAC3F3130040F4801B6D
:100360000098924620B10023D2EB030A63EB0B0BFB
:1003700001985946C0F14002504600F084FA064602
:100380000D4650465946019A00F09CFA10EB0800C1
:100390006141002487EA115284EAE7731A4340D08E
:1003A000009A62B3019A012A4FEA075215DC001B3A
:1003B00061EB02014FF0004202EA0752CDE9004230
:1003C000001C41F5801132462B4600F002FB03B0C1
:1003D000BDE8F08F40462146F9E7001B61EB0201C2
:1003E000001C41F5801300185B412018A2F500178E
:1003F00047EB030140EAD570B6196D4111E06D0875
:100400004FEA360645EAC0754FEA0752001B61EB1A
:100410000201001C41F5801149084FEA3000001923
:10042000514132462B4603B0BDE8F04F00F0C2BA4E
:100430000098012240000023D0EB020263EBE0733E
:10044000009821464FEAE074B8EB000061EB04012C
:10045000E9E783F000435BE781F0004158E72DE9CD
:10046000FE4F81EA030404F0004421F000410094AF
:100470004FF0000B23F0004350EA01045ED052EA33
:1004800003045BD0C3F30A54C1F30A552C44A4F20D
:10049000F3340194A0FB0254C1F3130141F4801121
:1004A000C3F3130343F4801301FB024400FB034E28
:1004B000840A970A44EA815447EA8357A4FB0768F1
:1004C00002958D0A05FB07854FEA932C04FB0C541B
:1004D0002705029D4FEA065847EA1637B5EB08058F
:1004E0006EEB070C870E920E47EA811742EA8312E1
:1004F000A7FB0201B6EB0B0164EB00042B0D43EAF2
:100500000C335E1844EB1C50DA465146E7FB0201FF
:10051000C5F313044FEA0B3343EA14534FEA043292
:10052000019C43EA0603A4F10C040294009CCDE96B
:1005300000B400F04EFA03B0BDE8F08F0020014691
:10054000F9E72DE9F04D81EA030404F0004B21F0B6
:10055000004514464FF0000A23F0004150EA05021E
:1005600020D054EA01021DD0C5F30A570246C5F354
:100570001303C1F31300C1F30A5640F4801543F48A
:100580008013A7EB0608101BD64608F2FD3873EB64
:10059000050002D308F1010801E092185B41B8F1AF
:1005A000000F03DA00200146BDE8F08D00204FF473
:1005B0008011064684460EE0171B73EB050705D332
:1005C000121B63EB050306434CEA010C49084FEA92
:1005D000300092185B4150EA0107EDD152EA030066
:1005E00012D082EA040083EA0501084305D0101BFB
:1005F000AB4106D20122002306E000224FF0004367
:1006000002E06FF0010253101AEB06004CEB0851A8
:1006100010EB0A0041EB0B01BDE8F04D00F0CAB948
:1006200070B521F0004303430CD0C1F30A550024F8
:10063000D5EB040564EB0403D617AD1AB34102DB16
:100640000020014670BD201841EB025170BDC10F62
:1006500080EAE0700844CA079623002100F04DB9F3
:1006600096230022114600F048B90EB5C10F80EA6A
:10067000E0700844CA07002140F233438DE80E00C1
:100680000A460B4600F0A5F903B000BD00F0004299
:1006900020F00040C10DC0F3160040F400007F2997
:1006A00001DA00207047962903DCC1F19601C840A9
:1006B00001E096398840002AF4D04042704720F08B
:1006C0000040C10DC0F3160040F400007F2901DA9C
:1006D00000207047962903DCC1F19601C84070479D
:1006E00096398840704770B5C1F30A5201F0004551
:1006F0000024C1F3130140F2FF3341F480119A4208
:1007000001DA002070BD40F233439A42A2F2334234
:1007100003DC524200F0C6F800E090402C43F1D0D8
:10072000404270BD00F0004230F000400AD0C10DE0
:1007300001F56071C0F3160042EA0151C20840079A
:1007400011437047002001467047000030B5041E79
:1007500071F1000404DB4FF00044404264EB0101FE
:10076000141E73F1000405DB1C464FF00043524297
:1007700063EB04038B4208BF824230BD30B5041ED8
:1007800071F1000404DB4FF00044404264EB0101CE
:10079000141E73F1000405DB1C464FF00043524267
:1007A00063EB0403994208BF904230BD01F000435F
:1007B00030B421F0004150EA010206D00A0DA2F542
:1007C0006072C1F31301002A02DC30BC00207047C4
:1007D000440F44EAC104C100E01830BC00EBC25031
:1007E00000F082B8002801DBC0F10040002901DBE5
:1007F000C1F100418142704730B50B4601460020EF
:100800002022012409E021FA02F59D4205D303FAD2
:1008100002F5491B04FA02F52844151EA2F1010253
:10082000F1DC30BD2DE9F05F0546002092469B4685
:1008300088460646814640241BE0284641464746F6
:10084000224600F02FF853465A46C01A914110D361
:1008500011461846224600F016F82D1A67EB0108DB
:100860004F4622460120002100F00DF817EB000949
:100870004E41201EA4F10104DFDC484631462A46E1
:100880004346BDE8F09F202A04DB203A00FA02F13B
:10089000002070479140C2F1200320FA03F319436E
:1008A00090407047202A04DB203A21FA02F0002110
:1008B000704721FA02F3D040C2F120029140084370
:1008C00019467047202A06DBCB17203A41FA02F07E
:1008D00043EAE07306E041FA02F3D040C2F120029D
:1008E00091400843194670470029A8BF7047401C33
:1008F000490008BF20F00100704710B4B0FA80FC36
:1009000000FA0CF050EA010404BF10BC704749B172
:10091000CCF1200421FA04F411FA0CF118BF0121E2
:1009200021430843A3EB0C01CB1D4FEA00614FEAC2
:10093000102042BF002010BC704700EBC350104491
:100940000029A4BF10BC7047401C490008BF20F01C
:10095000010010BC7047F0B4002802DCF0BC00209D
:100960007047C0F3C751C0F3160040F40000CA0737
:1009700001D14000491E3F2202EB610500221146D1
:100980004FF4000626FA01F31344D418844201D828
:10099000001B1A464000491C1729F3DD5100814213
:1009A00002D24FF0FF3100E0002102EBC550F0BC55
:1009B000FFF79ABF10B5141E73F1000408DA401C4B
:1009C00041F1000192185B411A4301D120F001006E
:1009D00010BD2DE9F04D92469B4611B1B1FA81F25E
:1009E00002E0B0FA80F220329046FFF74CFF044656
:1009F0000F4640EA0A0041EA0B0153465A460843B3
:100A000013D0114653EA010019D0C8F140025046F4
:100A1000FFF748FF05460E46504659464246FFF747
:100A200032FF084305D0012004E020463946BDE8E6
:100A3000F08D0020054346EAE0762C4337430A98C0
:100A40006305E40AA0EB08000022FD0A44EA4754CB
:100A50000A3002D500200146E9E701051019694175
:100A6000DDE9084500196941BDE8F04DA2E7C1F391
:100A70000A52C1F3130140F2FF3341F480119A424C
:100A800002DA00200146704740F233439A42A2F254
:100A9000334202DC5242FFF705BFFFF7F4BE00000D
:100AA000064C074D06E0E06840F0010394E80700BB
:100AB00098471034AC42F6D3FFF73EFB804D000858
:100AC000A04D0008FEE770470FB47CB504460A99B4
:100AD0000898FFF7A1FB054609990798FFF79CFBCB
:100AE0002946FFF793FB0090DDE90801FFF794FB2F
:100AF00005460A990798FFF78FFB2946FFF734FB55
:100B00000190DDE9000103C47CBC5DF814FB00002A
:100B10002DE9F04F89B0044600204FF4807540F273
:100B2000FF1600221AE082420EDA04EBC001D1E97E
:100B30000037CDE9013704EBC203D3E9007CC1E9FA
:100B4000007CDDE9011782C3294603E0401A01EB6E
:100B5000D17149108142F9DD0844521CB242E2DBF6
:100B60004FF400700121079102E00799491C079199
:100B700000EBD07040100128F7D1012566E0681E17
:100B80000226864006EBD67047104FF07E50059047
:100B9000002006903846FFF768FD02460B462E48B7
:100BA0002E49FFF7CEFC8946804600F0B7FFFFF7DD
:100BB000FDFD03904046494600F0BEFFFFF7F6FDFD
:100BC00080F0004004904FF00009781E089039E052
:100BD000C8462AE008EB070A0698009004EBCA0B07
:100BE000059BDBE9001201A8FFF76EFF54F83800FF
:100BF0000199FFF70BFB44F83A0004EBC80A02998D
:100C0000DAF80400FFF702FBCBF8040054F83800D0
:100C10000199FFF7A9FA44F838000299DAF80400BC
:100C2000FFF7A2FACAF80400B044B8F5007FD1DBA0
:100C300004980090DDE9051205A8039BFFF744FF27
:100C400009F1010908988145C2DD6D1C07988542AC
:100C500095DD09B0BDE8F08F182D4454FB21094003
:100C60002DE9F0410022CC7804F00F03E40601D511
:100C70008C7823430C784FF00F0714F0FF0F4FF0E0
:100C8000010C1CD005680CFA02F40E882640A6421E
:100C900011D1960007FA06F825EA080503FA06F8C6
:100CA00048EA0505CE78282E02D0482E02D002E070
:100CB000446100E00461521C082AE4D305600A88FC
:100CC000FF2A1ED94568002202F108060CFA06F434
:100CD0000E882640A64210D1960007FA06F825EAAB
:100CE000080503FA06F848EA0505CE78282E00D153
:100CF0004461CE78482E00D10461521C082AE3D307
:100D00004560BDE8F0810246002092680A4200D0AA
:100D10000120704701617047002A01D001617047CE
:100D200041617047FEE7000010B51B4C002816D04B
:100D3000012280212046FFF7EFFF00F06FF801222B
:100D400040212046FFF7E8FF00F068F8002240212C
:100D50002046FFF7E1FFBDE8104000F05FB8002239
:100D600080212046FFF7D8FF00F058F801224021EB
:100D70002046FFF7D1FF00F051F800224021204625
:100D8000FFF7CAFF00F04AF820460122BDE81040F4
:100D90008021FFF7C1BF0000000C014010B5104CCE
:100DA000012280212046FFF7B7FF00F037F801222B
:100DB00040212046FFF7B0FF80212046FFF7A3FF28
:100DC00030B1002240212046FFF7A6FF012010BDD0
:100DD000002240212046FFF79FFF002010BD0000A9
:100DE000000C014038B50121082000F0A5FB1420BB
:100DF0008DF80300C020ADF8000003208DF802003C
:100E0000054C69462046FFF72BFF0122C0212046F2
:100E1000FFF782FF38BD0000000C01400C20401E8F
:100E2000C0B2FCD270472DE9F0410646884615460F
:100E30001C46012000EB4600C7B200F055F87006D2
:100E4000000E00F0ABF8FFF7A9FF0028FBD14046E9
:100E500000F0A4F8FFF7A2FF0028FBD100F044F84F
:100E6000384600F09BF8FFF799FF0028FBD107E018
:100E700000F012F805F8010B3CB10020FFF754FF19
:100E8000641EE4B2F4D2BDE8F0810120FFF74CFF0C
:100E900000F04AF8F4E7000070B5114D002028700A
:100EA0000024104E2878400028700122402130464E
:100EB000FFF732FFFFF7B2FF80213046FFF723FF35
:100EC00000F001002870002240213046FFF724FF87
:100ED000FFF7A4FF641CE4B2082CE3D3287870BDAC
:100EE00050000020000C014010B50E4C0122802162
:100EF0002046FFF711FF012240212046FFF70CFF9B
:100F0000FFF78CFF002280212046FFF705FFFFF747
:100F100085FF002240212046FFF7FEFEBDE810407D
:100F2000FFF77CBF000C014010B50B4C0022802164
:100F30002046FFF7F1FE012240212046FFF7ECFE9C
:100F4000FFF76CFF012280212046FFF7E5FEBDE898
:100F50001040FFF763BF0000000C014070B504466D
:100F60000E461546FFF7C0FF6006000E00F016F8AB
:100F7000FFF714FF0028FBD1304600F00FF8FFF711
:100F80000DFF0028FBD1284600F008F8FFF706FF08
:100F90000028FBD1BDE87040FFF7C6BF70B506461C
:100FA0000024124D06FA04F0000605D50122802126
:100FB0002846FFF7B1FE04E0002280212846FFF713
:100FC000ABFEFFF72BFF012240212846FFF7A4FECE
:100FD000FFF724FF002240212846FFF79DFEFFF780
:100FE0001DFF641CE4B2082CDCD370BD000C014072
:100FF00013460A4601465720FFF715BF0A46014629
:101000005720FFF7ABBF000038B50121102000F0DA
:1010100093FA04208DF80300C402ADF800400320C9
:101020008DF80200044D69462846FFF719FE214657
:101030002846FFF76FFE38BD0010014010B5FFF7DE
:10104000E3FF1DA000F05EFEFFF7CCFEC82001F01C
:10105000F9FCC0210220FFF7D1FF00210320FFF798
:10106000CDFF00210420FFF7C9FF00210520FFF775
:10107000C5FF00210620FFF7C1FF0F210820FFF761
:10108000BDFF03210920FFF7B9FF27210A20FFF741
:10109000B5FF24210C20FFF7B1FF24210D20FFF71D
:1010A000ADFF7F211020FFF7A9FF2421BDE81040EC
:1010B000FE20FFF7A3BF00004D41583330313032DE
:1010C0005F494E5055545F494E49540D0A00000087
:1010D0003EB504461D4D0120A870012202A9002042
:1010E000FFF786FF012202A91046FFF781FF0622C3
:1010F00069460720FFF77CFF9DF800009DF801106E
:10110000800340EA81109DF8021040EA910080B20D
:1011100020809DF803109DF80420890341EA821184
:101120009DF8052041EA920189B2618042F2107374
:101130000022984201D22280AA70994201D2628094
:10114000AA7020882080608860803EBD2C0000202E
:10115000FEE7704770B50F23C27801260178002A98
:101160001ED0144A126802F4E062C2F5E062120A6C
:10117000C2F10404D3404578A54082781A402A433E
:10118000120101F1E02181F80024007800F01F0134
:101190008E404009800000F1E020C0F8006170BD81
:1011A00001F01F0086404809800000F1E020C0F8EF
:1011B000806170BD0CED00E00249084302490860FF
:1011C000704700000000FA050CED00E030B400218B
:1011D000084B0022002003EBC0046254401CC0B244
:1011E0008028F8D3491CC9B20829F3D330BC00F0D9
:1011F00091B800005C00002030B5CB0801F0070476
:101200000125A540ECB2074D05EBC005C808002A32
:10121000285C02D02043E85430BDC0432043C04383
:10122000E85430BD5C00002010B50021AE2000F075
:101230006EF90021084600F06AF90021102000F044
:1012400066F90021402000F062F90021812000F0C1
:101250005EF90021CF2000F05AF90021A12000F012
:1012600056F90021C82000F052F90021A62000F014
:101270004EF90021A82000F04AF900213F2000F09B
:1012800046F90021D32000F042F90021084600F081
:101290003EF90021D52000F03AF90021802000F02D
:1012A00036F90021D92000F032F90021F12000F0B8
:1012B0002EF90021DA2000F02AF90021122000F096
:1012C00026F90021DB2000F022F90021302000F077
:1012D0001EF90021202000F01AF90021022000F060
:1012E00016F900218D2000F012F90021142000F0E1
:1012F0000EF9FFF76BFF0021BDE81040AF2000F0B2
:1013000006B90346012000E05843491EC9B2FBD28A
:101310007047000070B50025104E05F1B000C0B256
:10132000002100F0F4F80021084600F0F0F8002158
:10133000102000F0ECF8002406EBC4000121405D11
:1013400000F0E5F8641CE4B2802CF5D3642001F0D1
:1013500085FB6D1CEDB2082DDFD370BD5C00002055
:101360002DE9FC4F814688461D46CDF80090C346C6
:10137000082D03D0680704D0012003E00620019067
:1013800006E0002000EBD50069084843C0B2019098
:10139000203A02F0FF0A00264EE0082D14D00C2D52
:1013A00019D0102D1ED0182D49D127490AEBCA009B
:1013B00001EB8000845D0027E00718D041464846D5
:1013C0000B9AFFF719FF19E020490AEB4A0001EBDD
:1013D0004000845DEFE71E490AEB4A0001EB800004
:1013E000845DE8E71B4800EB0A10845DE3E70B9897
:1013F00038B3002241464846FFF7FEFE640808F174
:10140000010808F0FF087F1CFFB2082FD4D309F1B0
:10141000010909F0FF09082D0BD00098A9EB000085
:10142000B0EB550F05D1DDF800900BF1080B0BF078
:10143000FF0BD846761CF6B201988642ADD3BDE8C4
:10144000FC8F0122D6E70000D0380008442C0008A9
:101450006C2E0008E03200082DE9F84F0746DDE960
:101460000A698B46924698460025082E00D102252F
:1014700000241DE0A8EB0400401EC1B20A20FFF7C3
:1014800040FFBAFBF0F00A21B0FBF1F201FB1200C1
:1014900090B13030C2B205EB560000FB0470C0B210
:1014A00033465946CDF80090FFF75AFF641CE4B26A
:1014B0004445DFD3BDE8F88F05EB560000FB047010
:1014C000C0B2334630225946CDF80090FFF748FFAE
:1014D000ECE72DE9F8410446884615461E46079F6D
:1014E0000BE03346414620460097FFF739FF082EB0
:1014F0000AD004EB5600C4B26D1C2A78A2F1200079
:101500005E28EED9BDE8F881A41DE4B2F4E7002915
:1015100001D000F0FDBA00F0F6BA7047054A002984
:1015200003D0D1690143D1617047D1698143D16151
:101530007047000000100240054A002903D091695D
:101540000143916170479169814391617047000047
:101550000010024010B5264A516801F00C01254BDD
:10156000002927D0042927D0082927D003605168F3
:1015700001F0F0010909204B5C5C0168E140416029
:10158000546804F4E064240A1C5D21FA04F48460C5
:10159000546804F46054E40A1B5DD940C160526889
:1015A00002F44042920B144B1B1F9A5CB1FBF2F108
:1015B000016110BD0360DAE70360D8E7516801F408
:1015C0007011536803F48033022404EB914133B16A
:1015D00053689B0307D5094B59430160C7E7074B85
:1015E00059430160C3E7034B59430160BFE7000063
:1015F0000010024000127A001C00002000093D008B
:101600007047000010B5064C0146204600F076FAFF
:101610008021204600F09CF90028F9D010BD000080
:1016200000380140AFF300800CB500220192009217
:101630002748016841F4803101604FF4A0630168DC
:1016400001F4003100910199491C0191009911B9EF
:1016500001999942F3D10168890302D501210091D2
:1016600000E000920099012930D11A490A6842F03D
:1016700010020A600A6822F003020A600A6842F057
:1016800002020A604168416041684160416841F47A
:1016900080614160416821F47C114160416841F4FE
:1016A000E8114160016841F08071016001688901C1
:1016B000FCD5416821F003014160416841F002011D
:1016C00041604168C1F381010229FAD10CBD0000DB
:1016D000001002400020024001F0C8B910B50F48C8
:1016E000016841F00101016041680D4A114041600B
:1016F00001680C4A11400160016821F480210160F9
:10170000416821F4FE0141604FF41F018160FFF741
:1017100089FF05494FF00060086010BD00100240CD
:101720000000FFF8FFFFF6FE08ED00E010B5012114
:101730008C07204600F05EF801280AD105A000F0D1
:10174000E1FA00F06FFF2046BDE81040012100F0F3
:1017500042B810BD3132330D0A0000001FB501211F
:101760000846FFF7DBFE4FF08044204600F053F8B8
:101770000021ADF80A10ADF8061042F20F72ADF874
:10178000082041F61F40ADF804008DF80C1001A9A7
:10179000204600F045F80121204600F01CF8012207
:1017A0001146204600F02DF84FF4A060FFF704FD2D
:1017B0001C208DF8000001218DF8031002208DF807
:1017C00001008DF802106846FFF7C4FC0121204695
:1017D00000F004F81FBDC94301827047002904D0FE
:1017E000018841F0010101807047018821F0010169
:1017F0000180704702460020128A0A4200D0012070
:101800007047002A03D082890A4382817047828907
:101810008A4382817047018921F007010181704765
:1018200030B502881B4C1C4DA0420DD0A8420BD0F5
:10183000B0F1804F08D0194B984205D0184B984210
:1018400002D0184B984203D122F070034A881A4301
:10185000154B984206D0154B984203D022F44073A2
:10186000CA881A4302808A8882850A880285A04233
:101870000AD0A84208D00E4A904205D00D4A9042A4
:1018800002D00D4A904201D1097A0186012181825C
:1018900030BD0000002C0140003401400004004035
:1018A00000080040000C0040001000400014004000
:1018B00000400140004401400048014010B5094C7F
:1018C00040F22551204600F04AF8002808D0204672
:1018D00000F010F9C1B2BDE8104003A000F012BA48
:1018E00010BD00000038014025630D0A0000000013
:1018F000002904D0818941F4005181817047818998
:1019000021F400518181704738B5012144F204006F
:10191000FFF712FE4FF40070ADF8000018208DF8AC
:10192000030001248DF80240084D69462846FFF760
:1019300097F9A102ADF8001004218DF803108DF87D
:10194000024069462846FFF78BF938BD0008014080
:101950000246002012880A4200D00120704770B56C
:10196000002440F66A12C1F3421301F01F0501265C
:1019700006FA05F2012B0CD0022B0DD0838A1340FE
:10198000090A8E40008830400BB100B10124204686
:1019900070BD83891340F3E7038A1340F0E710B565
:1019A00040F66A13C1F3421301F01F040121A14064
:1019B000012B07D0022B07D014303AB102680A433A
:1019C000026010BD0C30F8E71030F6E702688A4379
:1019D000026010BD30B585B004460D46208A4CF635
:1019E000FF710840E98801432182A0894EF6F31176
:1019F0000840A9882A8911436A8902431143A181B9
:101A0000A08A4FF6FF410840A9890143A182684698
:101A1000FFF7A0FD1D48844201D1039800E0029821
:101A2000A189090408D500EBC00101EB0010296869
:101A30004900B0FBF1F007E000EBC00101EB001042
:101A400029688900B0FBF1F06422B0FBF2F10901D2
:101A50000B096FF018056B4300EB8300A3891D048D
:101A60004FF0320307D503EBC000B0FBF2F000F0FB
:101A70000700084306E003EB0010B0FBF2F000F0B3
:101A80000F000843208105B030BD00000038014040
:101A900010B586B04FF4E13001900020ADF8080099
:101AA000ADF80A00ADF80C00ADF810000C20ADF850
:101AB0000E000F4C01A92046FFF78CFF012240F2D7
:101AC00025512046FFF76BFF01212046FFF710FF4D
:101AD00025208DF8140001208DF817008DF81500D1
:101AE0008DF8160005A8FFF735FB06B010BD000005
:101AF000003801408088C0F308007047C1F3080136
:101B000081807047FEE7024600213C20FFF726BA9D
:101B1000024640213C20FFF721BA000010B5044ADC
:101B2000044BFEF7F5FBBDE8104000F005B80000DF
:101B3000182D4454FB21F93F2DE9F04F87B004469E
:101B40000D46664F664EDFF89C91DFF89C810020C1
:101B500004900022134620462946FEF7F7FD03D2E3
:101B60000120049085F000453246604B204629460E
:101B700000F0E6FF04460D4632463B462046294625
:101B8000FEF7FCFD0CD2049800287CD000200490C5
:101B900032463B4620462946FEF75BFC04460D468E
:101BA0003246534B20462946FEF7E8FD07D232461F
:101BB0003B4620462946FEF74FFC04460D464F465D
:101BC00046463A46334620462946FEF7BAFCFEF71B
:101BD0008AFD80464046FEF748FD3A463346FEF70A
:101BE0003EFC22462B46FEF737FC04460D463A469D
:101BF000404B20462946FEF7C1FD09D208F10108F5
:101C00003A46334620462946FEF723FC04460D4655
:101C1000394901EBC800C0C8C8F1640001EBC0003D
:101C2000D0E9008922462B4620462946FEF717FCBC
:101C3000CDE9051022462B46FEF711FC8B46824665
:101C400022462B46FEF70BFC3B463246FEF707FCCE
:101C500000222A4BFEF775FCCDE902015046594699
:101C600042464B46FEF7FBFB0022254BFEF769FC84
:101C700082468B46DDE905103B463246FEF7EFFB18
:101C80004FF0FF3200E023E0FEF7CAFCCDE900018F
:101C900042464B4620462946FEF7E1FB3B4632468C
:101CA000FEF736FBDDE90023FEF7D3FB52465B4629
:101CB000FEF7CFFBDDE90223FEF72AFB04460D46C3
:101CC000049838B1204685F0004107B0BDE8F08F98
:101CD00001205CE720462946F7E70000FB21094088
:101CE000182D44541A271792BF15903FFB21194015
:101CF000FB21F93FBF15803F584A000800003840DB
:101D0000000018400FB4054B10B503A9044A02980F
:101D100000F0F0F810BC5DF814FB0000AF2A0008DA
:101D2000540000200907090E002804DB00F1E02020
:101D300080F80014704700F00F0000F1E02080F8F8
:101D4000141D704702E008C8121F08C1002AFAD10A
:101D500070477047002001E001C1121F002AFBD12B
:101D600070470000014908607047000058000020DB
:101D70002DE9FF5F82B00021DDE90430020DDDF8BE
:101D800040B0034318D044F61050A2F2FF32424351
:101D90001514119801281FD0A5EB0B00401C5FEA19
:101DA000000A4FF000064E4FDFF83891B04650461B
:101DB00015D5CAF1000413E0119801244AA30128A3
:101DC00001D16FEA0B010298119AC0E90031C0E914
:101DD000024206B0BDE8F09FCBF10000DFE7044609
:101DE0000021404A491842EB0450CDE9001012E0AE
:101DF000E00707D032463B4640464946FEF72FFBF8
:101E00008046894632463B4610461946FEF727FB78
:101E100006460F466410002CEAD1DDE90401DDE935
:101E20000023BAF1000F06DAFEF719FB42464B46D3
:101E3000FEF715FB05E0FEF784FB42464B46FEF736
:101E400080FB04460E460022284BFEF797FC03D881
:101E50004FF0FF30014607E00022254B2046314677
:101E6000FEF756FAFEF703FE102409E0002C0ADB09
:101E70000A220023FEF7D6FC039B30321A55641E5B
:101E800050EA0102F2D1641C039AC4F11103144414
:101E9000119A012A03D0012208430DD10AE0084318
:101EA00004D000204FF0110B119072E7A3EB0B054B
:101EB0006D1E0DE05B4504DD4FF0000205F10105EC
:101EC00004E003DA4FF00002A5F10105002AECD08E
:101ED00002981199C0E90231C0E9004579E7000094
:101EE000000014400000F03F300000000000F0430C
:101EF0000000E03F2DE9FF4F95B09B46894606461E
:101F000000250FE2252877D100242746F84A012131
:101F1000059400E0044316F8013F203B01FA03F06A
:101F20001042F7D130782A2811D06FF02F03307883
:101F3000A0F13002092A16D8059A44F0020402EBF7
:101F4000820203EB42021044761C0590EFE759F839
:101F5000042B0592002A03DA504244F40054059001
:101F600044F00204761C30782E2816D116F8010FA2
:101F700044F004042A280DD06FF02F023078A0F12D
:101F80003003092B09D807EB870302EB4303C7187B
:101F9000761CF3E759F8047B761C30786C280FD058
:101FA00006DC4C2817D068280DD06A2814D104E02C
:101FB000742810D07A280FD10DE044F400140AE000
:101FC00044F4801401E044F440147278824202D157
:101FD00004F58014761C761C307866280BD013DC50
:101FE000582877D009DC002875D04528F6D0462837
:101FF000F4D047281AD19DE118E0632835D0642831
:1020000079D0652812D195E1702873D008DC672853
:10201000F1D069286FD06E280DD06F2806D1B5E0B9
:1020200073282CD0752875D0782874D05A46179903
:1020300090476D1C75E1C4F30250022809D00328B3
:102040000DD0D9F8001004280DD00D6009F1040955
:1020500067E1D9F80010EA17C1E90052F6E7D9F8AC
:1020600000100D80F2E70D70F0E719F8041B8DF8F1
:10207000001000208DF80100EA46012003E059F825
:1020800004AB4FF0FF3061074FF0000102D40DE0C8
:1020900008F101018846B9420FDA8045F8DB1AF8E9
:1020A00008100029F4D108E008F1010188468142B6
:1020B000FADB1AF808100029F6D105985B46A0EB68
:1020C000080721463846179A00F094FA284400EB96
:1020D000080507E04DE029E10DE01AF8010B5A462A
:1020E00017999047B8F10108F7D25B462146384668
:1020F000179A13E142E00A220092C4F302524FF011
:10210000000A022A08D059F804CB032A4FEAEC71DE
:102110000AD00DE029E02AE009F1070121F00702C9
:10212000F2E802C1914609E00FFA8CFC4FEAEC712B
:10213000042A03D14FFA8CFC4FEAEC71002907DA2C
:102140000A460021DCF1000C61EB02012D2202E0C5
:10215000220504D52B228DF80420012203E0E2079A
:1021600001D02022F7E7904659E00A2102E0102230
:102170000DE010214FF0000A00910BE010224FF00B
:10218000000A44F004040827009203E008224FF0FC
:10219000000A0092C4F30252022A05D059F804CB77
:1021A0000021032A08D009E009F1070121F0070204
:1021B000F2E802C1914605E01FFA8CFC042A01D125
:1021C0000CF0FF0C4FF00008220728D5702806D02D
:1021D000009B83F0100353EA0A0305D00EE040226F
:1021E0008DF80420012208E05CEA010206D03022CA
:1021F0008DF804208DF8050002229046009B83F0A4
:10220000080353EA0A030AD15CEA010201D162071A
:1022100005D530228DF804204FF001087F1E582884
:1022200004D034A003900EA802900DE036A0F9E788
:1022300053466046009AFEF7F5FA84460398825C9E
:102240000298401E029002705CEA0100F0D10298F0
:1022500006A9081A00F1200A600702D524F4803488
:1022600000E00127574502DDA7EB0A0000E000204F
:1022700000EB0A01009005984144401A0590E003E4
:1022800006D45B462146179A059800F0B3F9054439
:10229000002706E001A85A46C05D179990476D1CBB
:1022A0007F1C4745F6DBE0030CD55B462146179AB9
:1022B000059800F09FF9054404E030205A4617992C
:1022C00090476D1C0099481E00900029F5DC08E03D
:1022D000029802995A460078491C02911799904732
:1022E0006D1CBAF10001AAF1010AF1DC65E1000000
:1022F00009280100303132333435363738396162DC
:10230000636465660000000030313233343536379F
:1023100038394142434445460000000000F058F976
:102320000544761C307800287FF4ECAD19B02846BF
:10233000BDE8F08F620700D4062709F1070222F0FA
:10234000070CFCE80223E14603F000485FEA080CB2
:1023500002D00FF2702C0DE05FEA045C02D50FF2A0
:10236000682C07E05FEAC47C02D00FF2602C01E029
:10237000AFF2700C4FF0FF3823F00043CDF850C09F
:1023800065280CD006DC452809D046281DD04728F2
:102390003DD13DE0662818D067287ED138E0002185
:1023A000112F01DB112000E0781CCDE9000106A906
:1023B0000EA8FFF7DDFCDDE90F010E9A0391002165
:1023C000009207F1010A04914DE04FF000400097A0
:1023D000CDE9011006A90EA8FFF7CAFCDDE90F023E
:1023E00003920E9B11990022DDF80CA00093049239
:1023F00011B9791C00EB010AB7EB0A0004D4C0F153
:10240000FF3007F1010A0490AAEB0700019044E0B5
:10241000012F00DA01270021112F01DD112000E03A
:102420003846CDE9000106A90EA8FFF7A1FCDDE9B9
:102430000F010E9A0391002104910092BA462107E0
:102440000CD40399514500DA8A46BAF1010F05DD33
:10245000009AAAF10101515C302908D0B84202DA91
:1024600010F1040F06DA0121CDE9011015E0AAF1FF
:102470000101E9E7002805DC049901440491AAEB75
:10248000000102E0411C514500DD8A460499401AD2
:10249000401C01904FF000400290200704D40198A6
:1024A000504501DBCDF8048000208DF84F000298E4
:1024B0000DF14F07B0F1004F25D02B200E90029860
:1024C0004FF0020800280CDA404202902D200E90B6
:1024D00007E00A210298FEF78FF93031029007F8E1
:1024E000011DB8F10001A8F10108F2DC02980028F2
:1024F000EFD1791E0E980870307800F0200040F07F
:10250000450007F8020D12A8C01B00F10708149837
:10251000007800B1012000EB0A01019801EBE071A5
:1025200005984144401A401E0590E00306D45B46DE
:102530002146179A059800F05DF805441498007834
:1025400018B15A46179990476D1CE00324D55B4695
:102550002146179A059800F04DF805441CE00498B0
:10256000002807DBDDE90301884203DD0098405CB9
:10257000179901E0179930205A469047049805F1C1
:102580000105401C04900198401E019004D12E20AA
:102590005A46179990476D1CBAF10001AAF1010A39
:1025A000DDDC05E017F8010B5A46179990476D1CC2
:1025B000B8F10001A8F10108F4DC5B462146179A46
:1025C0000598ABE62D0000002B0000002000000065
:1025D0002DE9F041044600251E461746880404D420
:1025E00005E039462020B0476D1C641EF9D5284609
:1025F000BDE8F0812DE9F041044600251E469046D5
:10260000C80301D5302700E02027880404D505E061
:1026100041463846B0476D1C641EF9D52846BDE8D2
:10262000F08100007CB500F0E1F900F059F8214D8F
:1026300021496868884202DD2048214901E0FEF70F
:1026400071F8FEF7B3F868600124002110231DA281
:1026500008460094FEF73DFF10231BA219460020F8
:102660000094FEF736FF1026CDE900640223002116
:1026700030202A68FEF7F0FE6868FEF720F8CDE902
:1026800000640246022310213020FEF7E5FE0949CE
:10269000CDE90064091F02230A78501C087030211C
:1026A0000020FEF7D9FEFEF735FEBDE87C4008A00D
:1026B000FFF728BB48000020E1FAC7428FC2F52887
:1026C0005CFF584048523A00535030323A00000004
:1026D000626C6F6F645F4C6F6F700D0A00000000DA
:1026E0002DE9F04F85B04FF0000900250020019042
:1026F00000900024DFF8C4824FF4007708F5845678
:1027000058F834104846FDF72FFD814656F834102E
:102710002846FDF729FD0546641CA4B2BC42EFD350
:102720006FF0080421464846FDF7E6FD0390214678
:102730002846FDF7E1FD02900024039958F8340083
:10274000FDF764FD48F8340056F834000299FDF7AF
:102750005DFD46F83400641CA4B2B4F5007FECD3F0
:1027600001246FF001094FF4FF7A58F83400012179
:10277000FDF7C2FD671E58F83710FDF7F5FC651C24
:1027800058F83510FDF7F0FC4946FDF7B5FD48F85F
:10279000340056F834000121FDF7AEFD56F837102D
:1027A000FDF7E2FC56F83510FDF7DEFC4946FDF773
:1027B000A3FD46F83400ACB25445D6D90024DFF866
:1027C000FC91651C59F8351059F83400FDF7CCFC24
:1027D000A61C59F83610FDF7C7FCE71C59F837104E
:1027E000FDF7C2FC04F1040859F83810FDF7BCFCF1
:1027F00004F1050A59F83A10FDF7B6FC04F1060B8E
:1028000059F83B10FDF7B0FC0246E01D049059F862
:1028100030101046FDF7A8FC6FF00201FDF76CFDCB
:1028200049F8340009F5845959F8351059F834003D
:10283000FDF79AFC59F83610FDF796FC59F8371059
:10284000FDF792FC59F83810FDF78EFC59F83A1054
:10285000FDF78AFC59F83B10FDF786FC0246049808
:1028600059F830101046FDF77FFC6FF00201FDF7BC
:1028700043FD49F83400ACB2B4F5FC7F9FD3504916
:10288000002048804D48FEF743F94846FEF740F9DE
:1028900000244A4D4FF4007605EBC4004068014621
:1028A000FDF7BAFC074655F834000146FDF7B4FCC5
:1028B0003946FDF759FC00F089F945F8340009EB79
:1028C000C40040680146FDF7A7FC074659F83400EC
:1028D0000146FDF7A1FC3946FDF746FC00F076F90C
:1028E00045F83400641CA4B2B442D5D30124019845
:1028F00055F83410FDF738FC019059F83410009861
:10290000FDF732FC0090641CA4B2B442EFD31E2148
:102910002A4800F0B5F804461E212A4800F0B0F815
:102920002046FDF7A2FE0022274BFDF798FD6FF031
:102930000802FDF775FE0022244BFDF790FD0022F2
:10294000234BFDF7E5FCFDF731FFFDF79FFEDFF8B8
:10295000708008F10408C8F80000DDE90101FDF706
:102960005BFC044603990098FDF756FC2146FDF7F1
:1029700085FCFDF7D7FE8A468146164A164BFDF7C1
:102980006EFD06460F464C46554648465146134A8C
:10299000134BFDF764FD22462B46FDF760FD3246E2
:1029A0003B46FDF7B5FC0F4A0F4BFDF7B1FCFDF7B9
:1029B000FDFEC8F8040005B0BDE8F08FDC0400207F
:1029C000440000205C1500200000594000004E40EB
:1029D00000003440B4C876BE9F5A3E4048E17A14A5
:1029E000AE8746C0AE47E17A14B65740F8B5124DEF
:1029F00000276F804FF400766846FEF769FB6C880D
:102A0000B44215D2BDF80000FDF72AFE0B4941F88B
:102A1000340001EBC4004760BDF80200FDF720FE62
:102A2000074941F8340001EBC4004760641C6C8026
:102A30006888B042E0D3F8BD44000020DC040020E8
:102A40005C1500204FF47A71484303490860086818
:102A50000028FCD1704700001400002002490860E3
:102A600008680028FCD17047140000200348016862
:102A7000002902D00168491E01607047140000203F
:102A80002DE9F04105460F460424A0462E6A09E0D0
:102A900055F834103046FDF7A5FE02D255F83460E3
:102AA000A046641CBC42F3DB4046BDE8F08110B593
:102AB0000446E0B2FEF7A6FD204610BD08B54FF46F
:102AC000A060FEF779FB00F097F8FEF71DFFFEF718
:102AD000DFFFFEF7B3FAFEF785F9FEF7A5FB012449
:102AE0000021102308A208460094FEF7F2FC1023F0
:102AF00006A2194600200094FEF7EBFCFEF70AFC44
:102B0000FEF72CFEFEE7000048523A0053503032E8
:102B10003A0000001CB5CDE90001019CFDF7E3FD82
:102B2000FDF795FD002C07DA4FF07E51FDF76EFBA7
:102B3000BDE81C40FDF7F6BDBDE81C40FDF7F2BD49
:102B40002DE9F0478046894614461D46002213466B
:102B500020462946FDF7FAFD03D100200146BDE8D5
:102B6000F08722462B4640464946FDF7EAFCFFF730
:102B7000D1FF22462B46FDF772FC42464B46FDF73D
:102B80006BFC06460F460022134640464946FDF7B9
:102B9000DDFD02D24FF0010801E04FF000080022F5
:102BA000134620462946FDF7D1FD01D2012000E061
:102BB0000020804507D022462B4630463946FDF797
:102BC00048FC06460F4630463946C8E770B505460C
:102BD000FDF7C1FE044620F00040C0F1FF40C00FE9
:102BE00008D025F00040C0F1FF40C00F04BF012015
:102BF000FFF7B8F8204670BD70B51048104900685E
:102C0000B0FBF1F1491E4FF0FF35B1F1807F01D3E8
:102C100001210BE04FF0E02461610F212846FFF70E
:102C200081F80020A06107202061002101B1FEE7AA
:102C30002846BDE870400021FFF774B8000000206E
:102C400000350C000000000000000000002F000014
:102C500000000700070000147F147F1400242A7F5F
:102C60002A120062640813230036495522500000DE
:102C70000503000000001C224100000041221C004E
:102C80000014083E08140008083E0808000000A0D0
:102C900060000008080808080000606000000020CC
:102CA00010080402003E5149453E0000427F4000AA
:102CB000004261514946002141454B310018141230
:102CC0007F10002745454539003C4A4949300001FD
:102CD0007109050300364949493600064949291E4C
:102CE00000003636000000005636000000081422AE
:102CF00041000014141414140000412214080002AE
:102D00000151090600324959513E007C1211127CD2
:102D1000007F49494936003E41414122007F4141FF
:102D2000221C007F49494941007F09090901003EF1
:102D30004149497A007F0808087F0000417F41002F
:102D4000002040413F01007F08142241007F4040A5
:102D50004040007F020C027F007F0408107F003E8D
:102D60004141413E007F09090906003E4151215E73
:102D7000007F091929460046494949310001017F70
:102D80000101003F4040403F001F2040201F003F06
:102D90004038403F006314081463000708700807B8
:102DA00000615149454300007F41410000552A55CB
:102DB0002A55000041417F00000402010204004046
:102DC0004040404000000102040000205454547868
:102DD000007F484444380038444444200038444488
:102DE000487F00385454541800087E090102001826
:102DF000A4A4A47C007F080404780000447D400063
:102E0000004080847D00007F102844000000417F46
:102E10004000007C04180478007C08040478003822
:102E20004444443800FC242424180018242418FCAA
:102E3000007C0804040800485454542000043F4413
:102E40004020003C4040207C001C2040201C003CD6
:102E50004030403C004428102844001CA0A0A07C26
:102E6000004464544C44141414141414000000005E
:102E700000000000000000000000FC000000000056
:102E800002000000000C020C020000000000000024
:102E900090D0BCD0BC900003000300001824FE4476
:102EA0008C000302070201001824D8B04C800003F4
:102EB00000010201C038E438E00001020201020210
:102EC000080600000000000000000000000000F8FC
:102ED0000402000000010204000204F800000004E3
:102EE000020100009060F860900000000100000006
:102EF0002020FC2020000000010000000000000055
:102F00000000080600000000202020202000000013
:102F100000000000000000000000000200000000AF
:102F20000080601C0200040300000000F804040498
:102F3000F8000102020201000008FC00000000028B
:102F40000302000018844424180003020202020055
:102F500008042424D80001020202010040B088FCC9
:102F600080000000000302003C242424C40001026D
:102F700002020100F824242CC00001020202010018
:102F80000C04E41C0400000003000000D8242424E6
:102F9000D80001020202010038444444F800000352
:102FA000020201000000100000000000020000000A
:102FB00000002000000000000600000000205088F3
:102FC0000402000000000102909090909000000028
:102FD00000000000000204885020000201000000F0
:102FE0001804C4241800000002000000F804E4944F
:102FF000F80001020202020000E09CF080000203DF
:103000000000030204FC2424D80002030202010091
:10301000F80404040C0001020202010004FC040490
:10302000F80002030202010004FC24740C000203F5
:103030000202030004FC24740C00020302000000DE
:10304000F0080444CC4000010202010004FC2020EE
:10305000FC040203000003020404FC040400020256
:1030600003020200000404FC04040604040300003C
:1030700004FC24D00C0402030200030204FC04003C
:103080000000020302020203FC3CC03CFC000300FF
:103090000300030004FC30C4FC040203020003002C
:1030A000F8040404F80001020202010004FC2424D4
:1030B0001800020302000000F8848404F8000102F2
:1030C0000207050004FC24649800020302000302C6
:1030D000182424448C000302020201000C04FC04A6
:1030E0000C0000020302000004FC0000FC040001CC
:1030F00002020100047C80E01C04000003000000C8
:103100001CE03CE01C00000300030000049C609CE9
:103110000400020300030200041CE01C040000027F
:10312000030200000C84641C04000203020203007A
:103130000000FE020200000007040400000E30C080
:103140000000000000010200000202FE0000000476
:10315000040700000004020400000000000000005A
:10316000000000000000080808080808000002002D
:1031700000000000000000000040A0A0C00000010E
:103180000202030204FC2020C0000003020201002E
:1031900000C02020600000010202020000C02024C4
:1031A000FC0000010202030200C0A0A0C000000158
:1031B000020202000020F82424040002030202009C
:1031C0000040A0A0602000070A0A0A0404FC202096
:1031D000C0000203020003020020E400000000021D
:1031E00003020000000020E40000080808070000B7
:1031F00004FC80E020200203020003020404FC001F
:103200000000020203020200E020E020C0000300F0
:103210000300030020E02020C0000203020003029C
:1032200000C02020C00000010202010020E0202098
:10323000C000080F0A02010000C02020E0000001C9
:10324000020A0F0820E040202000020302000000D4
:103250000060A0A020000002020203000020F8206D
:10326000000000000102020020E00020E000000158
:103270000202030220E02080602000000301000021
:103280006080E08060000003000300002060806038
:10329000200002030003020020E0208060200808D4
:1032A000070100000020A0602000000203020200CD
:1032B000000020DE0200000000070400000000FF04
:1032C00000000000000F00000002DE2000000004EB
:1032D00007000000020102040402000000000000D8
:1032E00000000000000000000000000000000000DE
:1032F000000000F800000000000000333000000073
:1033000000100C06100C0600000000000000000079
:1033100040C07840C0784000043F04043F040400EB
:10332000007088FC08300000001820FF211E0000FB
:10333000F008F000E018000000211C031E211E0010
:1033400000F00888700000001E2123241927211096
:1033500010160E0000000000000000000000000039
:10336000000000E0180402000000000718204000E0
:1033700000020418E00000000040201807000000D0
:10338000404080F0804040000202010F0102020034
:10339000000000F0000000000101011F0101010018
:1033A000000000000000000080B07000000000007D
:1033B0000000000000000000000101010101010106
:1033C000000000000000000000303000000000009D
:1033D0000000000080601804006018060100000072
:1033E00000E010080810E000000F102020100F006F
:1033F000001010F8000000000020203F20200000F6
:10340000007008080888700000302824222130004D
:1034100000300888884830000018202020110E0055
:103420000000C02010F8000000070424243F2400FE
:1034300000F80888880808000019212020110E00D3
:1034400000E0108888180000000F112020110E00E5
:1034500000380808C83808000000003F00000000DD
:103460000070880808887000001C222121221C009E
:1034700000E010080810E0000000312222110F00C7
:10348000000000C0C000000000000030300000005C
:1034900000000080000000000000806000000000CC
:1034A00000008040201008000001020408102000E5
:1034B0004040404040404000040404040404040030
:1034C00000081020408000000020100804020100C5
:1034D000007048080808F0000000003036010000C5
:1034E000C030C828E810E0000718272423140B0078
:1034F0000000C038E0000000203C230202273820F2
:1035000008F8888888700000203F202020110E00D5
:10351000C0300808080838000718202020100800CC
:1035200008F808080810E000203F202020100F00B5
:1035300008F88888E8081000203F20202320180081
:1035400008F88888E8081000203F200003000000E9
:10355000C03008080838000007182020221E02008A
:1035600008F808000008F808203F210101213F2049
:10357000000808F8080800000020203F2020000074
:1035800000000808F8080800C08080807F00000064
:1035900008F888C028180800203F2001263820009D
:1035A00008F8080000000000203F20202020300004
:1035B00008F8F800F8F80800203F003F003F20001E
:1035C00008F830C00008F808203F200007183F0026
:1035D000E01008080810E0000F10202020100F0055
:1035E00008F808080808F000203F21010101000048
:1035F000E01008080810E0000F18242438504F008D
:1036000008F8888888887000203F2000030C30204C
:1036100000708808080838000038202121221C008A
:10362000180808F8080818000000203F20000000D3
:1036300008F808000008F808001F202020201F00BC
:103640000878880000C83808000007380E0100001C
:10365000F80800F80008F800033C0700073C0300E6
:10366000081868808068180820302C03032C30204C
:103670000838C800C83808000000203F20000000BB
:1036800010080808C8380800203826212020180013
:10369000000000FE020202000000007F40404000E7
:1036A000000C30C000000000000000010638C0001F
:1036B00000020202FE000000004040407F000000C7
:1036C00000000402020204000000000000000000EC
:1036D00000000000000000008080808080808080EA
:1036E00000020204000000000000000000000000D2
:1036F00000008080808000000019242222223F20C8
:1037000008F8008080000000003F112020110E000A
:103710000000008080800000000E11202020110099
:10372000000000808088F800000E112020103F204B
:103730000000808080800000001F222222221300CF
:10374000008080F0888888180020203F202000001A
:103750000000808080808000006B949494936000CF
:1037600008F8008080800000203F210000203F20DA
:1037700000809898000000000020203F20200000DA
:10378000000000809898000000C08080807F0000CA
:1037900008F8000080808000203F24022D302000A7
:1037A000000808F8000000000020203F2020000052
:1037B0008080808080808000203F20003F20003F6C
:1037C0008080008080800000203F210000203F207A
:1037D0000000808080800000001F202020201F002B
:1037E000808000808000000080FFA12020110E005A
:1037F0000000008080808000000E112020A0FF804B
:10380000808080008080800020203F2120000100F7
:10381000000080808080800000332424242419004C
:10382000008080E0808000000000001F2020000059
:103830008080000000808000001F202020103F209A
:10384000808080000080808000010E30080601002A
:1038500080800080008080800F300C030C300F00CF
:1038600000808000808080000020312E0E312000FA
:10387000808080000080808080818E70180601002A
:1038800000808080808080000021302C2221300048
:1038900000000000807C020200000000003F404069
:1038A00000000000FF00000000000000FF0000001A
:1038B0000002027C800000000040403F0000000049
:1038C00000060101020204040000000000000000E4
:1038D00000000000000000000000000000000000E8
:1038E00000000000000000000000000000000000D8
:1038F000000000000000000000F0F0F000000000F8
:103900000000000000017F01000000000000000036
:10391000001C1C1C0000000000008060301C8C603B
:10392000301C0C000000000000000000000000003F
:10393000000000000000000000000000000000E0A7
:103940000000000000E000000086E69F8686868674
:10395000E69F860000011F01010101011F01010016
:10396000000080C06020F820E0C0000000000307D5
:103970000C18FF70E18100000000070F10107F108D
:103980000F0700008060206080000000E020000041
:103990000F3020309F70DC371030C0000000100E58
:1039A00003000718101807000000C02020E0C00026
:1039B0000000000080E01F38E88703C43C040000DA
:1039C000070F1810100B070D1010080000808C4C0A
:1039D00038000000000000000000000000000000AF
:1039E00000000000000000000000000000000000D7
:1039F00000000000000080E030080400000000002B
:103A000000FEFF0100000000000000000000030FA6
:103A10001820400000040830E08000000000000092
:103A20000000000001FFFE00000000000040201820
:103A30000F03000000000000000000000000C000B4
:103A400000000000004266663C18FF183C666642B3
:103A50000000000000000300000000000000000063
:103A60000000800000000000001010101010FF1077
:103A70001010101000000000000003000000000003
:103A80000000000000000000000000000000000036
:103A9000000000000000000000808C4C3800000096
:103AA0000000000000000000000000000000000016
:103AB0000010101010101010101010000000000066
:103AC00000000000000000000000000000000000F6
:103AD00000000000000000000000000000000000E6
:103AE00000001C1C1C000000000000000000000082
:103AF00000000000E0380C000000000080701C0393
:103B0000000000000060380E01000000000000000E
:103B1000000080C060202060C080000000FEFF0127
:103B20000000000001FFFE000001070E1810101831
:103B30000E0701000000808080C0E000000000004F
:103B40000000000000FFFF00000000000000101057
:103B5000101F1F1010100000008040202020206047
:103B6000C080000000030300804020381F070000D1
:103B7000001C1A1918181818181F00000080C020FF
:103B8000202060C080000000000303001010182FE8
:103B9000E780000000070F10101010180F0700003A
:103BA000000000000000C0E0F000000000C0B0888D
:103BB000868180FFFF808000000000000010101F41
:103BC0001F1010000000E060606060606060000036
:103BD00000003F1008080818F0E0000000070B1074
:103BE0001010101C0F030000000080C04020202097
:103BF000E0C0000000FCFF211008080818F0E000F9
:103C00000001070C18101010080F03000000C0E09E
:103C10006060606060E06000000003000000E01889
:103C20000700000000000000001F1F00000000004F
:103C30000080C0602020202060C080000087EF2C22
:103C40001818303068CF830000070F0810101010CC
:103C5000180F07000000C0C020202020C0800000F6
:103C6000001F3F604040402010FFFE0000000C1C81
:103C7000101010080F0300000000000000000000FA
:103C80000000000000000000000E0E0E000000000A
:103C900000000000001C1C1C0000000000000000D0
:103CA000000000000000000000000000000C0C00FC
:103CB0000000000000000000005838000000000074
:103CC00000000000000000804020100000001028CC
:103CD000448201000000000000000000000001021A
:103CE00004081000000000000000000000000000B8
:103CF000008484848484848484848400000000009C
:103D000000000000000000000000102040800000C3
:103D100000000000000000000000018244281000A4
:103D200000001008040201000000000000C0202074
:103D30001010101030E0C0000003030000F0100865
:103D40000C070300000000001C1C1C000000000009
:103D5000000000C0406020202040C00000FCFF01A7
:103D6000F00E03C1FE03807F0001070E0811111041
:103D7000110904020000000080E0E00000000000E3
:103D80000000807C4340477FF880000010181F101F
:103D900000000000131F1C1020E0E0202020206005
:103DA000C080000000FFFF10101010182FE78000E7
:103DB000101F1F1010101010180F0700000080C0F7
:103DC000402020202060E00000FCFF0100000000F7
:103DD000000001000001070E181010100804030075
:103DE00020E0E02020202040C080000000FFFF00F5
:103DF0000000000001FFFE00101F1F101010180827
:103E00000E07010020E0E02020202020206080001C
:103E100000FFFF101010107C00000000101F1F108A
:103E2000101010101018060020E0E02020202020A4
:103E30006060800000FFFF101010107C0000010087
:103E4000101F1F100000000000000000000080C0D4
:103E50006020202040E0000000FCFF010000404006
:103E6000C0C140400001070E181010100F0F0000D5
:103E700020E0E0200000000020E0E02000FFFF1034
:103E80001010101010FFFF00101F1F100000000086
:103E9000101F1F100000202020E0E0202020000044
:103EA0000000000000FFFF000000000000001010F4
:103EB000101F1F101010000000000000202020E044
:103EC000E020202000000000000000FFFF000000B4
:103ED0000060E0808080C07F3F00000020E0E020A4
:103EE000000020A06020200000FFFF30187CE3C00D
:103EF00000000000101F1F10000001131F1C1810ED
:103F000020E0E020000000000000000000FFFF00B3
:103F10000000000000000000101F1F101010101003
:103F20001018060020E0E0E000000000E0E0E020E3
:103F300000FF013FFEC0E01E01FFFF00101F100048
:103F4000031F0300101F1F1020E0E0C0000000004E
:103F50000020E02000FF0003071C78E08000FF0045
:103F6000101F100000000000030F1F00000080C0A1
:103F700060202060C080000000FEFF010000000003
:103F800000FFFE000001070E181010180C070100BA
:103F900020E0E0202020202060C0800000FFFF20E3
:103FA00020202020301F0F00101F1F1000000000D5
:103FB00000000000000080C060202060C080000081
:103FC00000FEFF010000000000FFFE000001070EE0
:103FD0001111133C7C67210020E0E02020202020EC
:103FE00060C0800000FFFF101030F0D0080F070005
:103FF000101F1F10000000030F1C10100080C06075
:10400000202020204040E00000070F0C181830301E
:1040100060E08100001F0C0810101010180F07003E
:104020008060202020E0E02020206080010000004F
:1040300000FFFF000000000100000000101F1F1023
:104040000000000020E0E020000000000020E02050
:1040500000FFFF00000000000000FF0000070F1835
:1040600010101010100807002060E0E02000000091
:1040700020E060200000077FF88000807C030000C3
:1040800000000000071F1C070000000020E0E020E7
:1040900000E0E0200020E0200007FFF8E01FFFFC28
:1040A000E01F00000000031F0300011F03000000C9
:1040B000002060E0A0000020E0602000000000037D
:1040C0008F7CF8C6010000000010181E13000117B5
:1040D0001F1810002060E0E02000000020E06020B9
:1040E000000001073EF8E018070000000000001083
:1040F000101F1F101000000000806020202020A052
:10410000E0E0200000000000C0F03E0F03000000CF
:1041100000101C1F171010101018060000000000DF
:1041200000FC0404040404000000000000FF000080
:104130000000000000000000007F404040404000C0
:10414000000010E00000000000000000000000007F
:10415000031C60800000000000000000000000035D
:104160000C70800000000404040404FC0000000043
:1041700000000000000000FF0000000000004040C0
:104180004040407F0000000000000010080C040CBC
:104190000810000000000000000000000000000007
:1041A000000000000000000000000000000000000F
:1041B00000000000000000000000000000000000FF
:1041C00000000000808080808080808080808080EF
:1041D00000000004040808000000000000000000C7
:1041E00000000000000000000000000000000000CF
:1041F00000000000000000000000000000000000BF
:10420000000098D844642424FCF80000000F1F1814
:10421000101010081F1F10180020E0F00000000010
:10422000000000000000FFFF180804040CF8F00074
:1042300000001F0F18101010180F030000000000DE
:10424000000000000000000000E0F8180404043C36
:104250003800000000030F0C1010101008060000BA
:104260000000000000000020E0F0000000E0F81C6A
:1042700004040408FFFF000000030F1810101008CA
:104280001F0F0800000000000000000000000000F8
:104290000000E0F8484444444C7870000000030FEC
:1042A0000C181010100804000000000080C06020EE
:1042B00020E0C00000040404FFFF04040404000024
:1042C000000010101F1F1010100000000000000060
:1042D0000000000000000000000070F88C04048C56
:1042E000F874040C007076CF8D8D8D89C8787000BD
:1042F0000020E0F000000000000000000000FFFFD0
:1043000008040404FCF8000000101F1F1000001037
:104310001F1F10000000000000606000000000008F
:104320000000040404FCFC00000000000000101069
:10433000101F1F101010000000000000000000609F
:104340006000000000000000040404FCFC00000009
:104350000000C0C08080C07F3F0000000020E0F06F
:1043600000000000000000000000FFFF80C0F41CFF
:104370000404000000101F1F1100031F1C10100078
:104380000000202020E0F0000000000000000000FD
:1043900000FFFF000000000000001010101F1F10A1
:1043A00010100000000000000000000000000000ED
:1043B00004FCFC0804FCFC0804FCFC00101F1F109B
:1043C000001F1F10001F1F10000000000000000051
:1043D000000000000004FCFC08080404FCF80000D5
:1043E00000101F1F100000101F1F10000000000011
:1043F000000000000000000000E0F0180C04040CB5
:1044000018F0E00000030F0C101010100C0F030048
:104410000000000000000000000000000004FCFCA0
:10442000080404040CF8F0000080FFFF88901010CE
:104430001C0F03000000000000000000000000004E
:1044400000E0F81C04040408F8FC000000030F1846
:1044500010109088FFFF80000000000000000000A6
:1044600000000000040404FCFC100804040C0C0010
:104470001010101F1F10101000000000000000009E
:10448000000000000000000000003078CCC48484EC
:10449000840C1C0000001E1810101011190F0600CB
:1044A0000000000000C00000000000000004040440
:1044B000FFFF040404000000000000000F1F1010A4
:1044C000100C0000000000000000000000000000D0
:1044D0000004FCFE00000004FCFE000000000F1FB2
:1044E000181010081F0F0800000000000000000056
:1044F0000000000000040C3CFCC40000C43C0C04A0
:1045000000000000010F1E0E01000000000000006E
:104510000000000000000000043CFCC400E47CFC3F
:1045200084807C040000071F070000071F070000AD
:104530000000000000000000000000000004041C57
:104540007CE4C0341C0404000010101C1601131F6E
:104550001C18100000000000000000000000000017
:1045600000040C3CFCC400C43C0404000000C080F7
:10457000C1370E0100000000000000000000000034
:104580000000000000001C0404C4F47C1C040000B3
:104590000000101C1F17111010180E000000000062
:1045A000000000F80C04000000000000001028EFDC
:1045B00000000000000000000000003F604000001C
:1045C000000000000000FF000000000000000000EC
:1045D0000000FF0000000000000000000000FF00DD
:1045E000000000000000040CF800000000000000C3
:1045F00000000000EF2810000000000000004060F4
:104600003F0000000000000000180602020408102D
:104610002020300800000000000000000000000022
:104620000000000000000000000000000000F0108A
:10463000101010FF10101010F000000000000F0408
:10464000040404FF040404040F0000004040405F21
:10465000555555755555555F404040000040200F59
:10466000094989790909090F2040000000FE02422A
:104670004ACA4A4ACA4A4A4202FE000000FF405063
:104680004C4340404F50505C40FF00000000F88811
:10469000888888FF88888888F800000000001F0844
:1046A0000808087F888888889F80F000808282823E
:1046B000828282E2A2928A868280800000000000CC
:1046C0000040807F0000000000000000101010FF7C
:1046D000109008888888FF88888808000444827FB2
:1046E00001808040432C102846818000001010106B
:1046F00010D030FF30D0121C10100000100804023F
:10470000010000FF000001020408100004040484FA
:10471000E43C2724242424E40404040004020100CB
:10472000FF0909090949897F0000000000FE225A9B
:104730008600FE9292929292FE00000000FF040812
:104740000700FF4020030C1422414000008040205D
:10475000180680000718204080000000010020702B
:104760002826212020243860000101000010129228
:104770009292929292121202FE0000000000003FFC
:10478000101010103F0040807F000000000000C0AB
:1047900080808080808080FC84808080808080C059
:1047A000C0000000000000FF7F404040404040FF4C
:1047B00040404040404040FF7F00000000000000BB
:1047C000000000000000007F7000000000000000FA
:1047D00000000000000000000000000000000000D9
:1047E000000000FCF80000000000000000000000D5
:1047F0000000000000000000FFFE020202020202B0
:10480000020202FFFF020202020202020202FF0390
:1048100000000000000000001F1F04040404040442
:10482000040404FFFF0404040404040404041F003B
:104830000000000000000000000000000000000078
:104840000000007F3F0000000000000000000000AA
:104850000000000000000000000000000000000058
:104860000000000000000000000000000000000048
:1048700000F8F8F0F07020000000000000000000D8
:104880000000000000000000000000000000000028
:104890000000000000000000000000008000000098
:1048A0000000000000000000000000000000000008
:1048B00000FFFFFFFF0000000000000000000000FC
:1048C00000000000000000008080000000000000E8
:1048D00000000000000000000000000000FFFFFEDC
:1048E0000606060606060606060606060606060668
:1048F00006FFFFFFFF060606060606060606060674
:1049000006060606060606FFFFFFFF070200000078
:1049100000000000000000000000000000FFFFFF9A
:104920000000000000000000000000000000000087
:1049300000FFFFFFFF00000000000000000000007B
:1049400000000000000000FFFFFFFF00000000006B
:1049500000000000000000000000000000FFFFFF5A
:1049600018181818181818181818181818181818C7
:1049700018FFFFFFFF18181818181818181818181B
:1049800018181818181818FFFFFFFF000000000083
:104990000000000000000000000000000201010013
:1049A0000000000000000000000000000000000007
:1049B00000FFFFFFFF0000000000000000000000FB
:1049C00000000000000000010100000000000000E5
:1049D00000000000000000000000000000000000D7
:1049E00000000000000000000000000000000000C7
:1049F00000FFFFFFFF0000000000000000000000BB
:104A000000000000000000000000000000000000A6
:104A10000000000000000000000000000000000096
:104A20000000000000000000000000000000000086
:104A3000001F1F0F0F00000000000000000000001A
:104A40000000000000000000000000000000000066
:104A50000000000000000000000000000000000056
:104A60006F0EA6389415903F6058F72D1215A03F91
:104A7000AB047532561EA83F7993E01B0A13B03F72
:104A8000498E3932E515B43FF017FC7F7B17B83FEC
:104A9000DA97623D8C17BC3FE05BA15DEB0AC03F3B
:104AA000E9AA91330D09C23F7553A8670B06C43FAD
:104AB0006C2377D3C501C63F797A03651CFCC73FD9
:104AC000A3DDCC20EFF4C93F6A1FD2231EECCB3FFD
:104AD000CCFB94A589E1CD3F96071CFA11D5CF3FB9
:104AE0004769F9C94BE3D03F0E0E1483FDDAD13F7D
:104AF0001FFD24838ED1D23F4FE92F37EFC6D33F1E
:104B0000FB02711F10BBD43FDD9657D0E1ADD53FFE
:104B10004B667FF3549FD63F19A9A8485A8FD73FB9
:104B200063A9AEA6E27DD83FC2E97CFCDE6AD93F2C
:104B300063C602524056DA3F9D8125C9F73FDB3FED
:104B4000C3ACB09EF627DC3F01DE442B2E0EDD3FCA
:104B50001FA444E48FF2DD3F52A9BF5C0DD5DE3FB8
:104B600024F65B4698B5DF3FE4A21E39114AE03FC8
:104B70009C2EF5E84EB8E03F512B183C7E25E13FD6
:104B80005CE9014D9891E13FEA00B04796FCE13FB6
:104B900057BB116A7166E23F5E5A750423CFE23F4C
:104BA0004136F479A436E33F0BACDD40EF9CE33FA4
:104BB0002AD520E3FC01E43FBC01B5FEC665E43F15
:104BC000EFEE004647C8E43FECB240807729E53F6E
:104BD000F057EA895189E53F14201155CFE7E53FA9
:104BE000A66BC7E9EA44E63FCD3B7F669EA0E63F61
:104BF000664B6900E4FAE63F16B8D203B653E73FC6
:104C0000A53581D40EABE73FDCC50DEEE800E83FEB
:104C100014EF3DE43E55E83FEA6B5B630BA8E83FC9
:104C2000844E8A3049F9E83FF2911D2AF348E93F62
:104C30005714EA470497E93FA8F4979B77E3E93FC5
:104C4000C94EF250482EEA3F095135AE7177EA3F1E
:104C500017A65A14EFBEEA3F862E64FFBB04EB3F53
:104C60004005A506D448EB3F3CCA08DD328BEB3F3C
:104C7000F72E5951D4CBEB3F5AC0814EB40AEC3FCA
:104C8000A7E9D1DBCE47EC3F6C2C3D1D2083EC3FE8
:104C900045899953A4BCEC3F8C15DCDC57F4EC3F00
:104CA00031BA5334372AED3FED17E2F23E5EED3F65
:104CB000468D32CF6B90ED3FE55AEF9DBAC0ED3F88
:104CC000E3E2F45128EFED3FD8FF82FCB11BEE3F49
:104CD0007E706CCD5446EE3FFF5444130E6FEE3F92
:104CE000F5BA893BDB95EE3F7235D1D2B9BAEE3FCA
:104CF000667EEC84A7DDEE3FE01E101DA2FEEE3FB7
:104D0000CF1BF785A71DEF3FF8A404CAB53AEF3FC4
:104D100014C46313CB55EF3FFF0925ACE56EEF3F9D
:104D200021385AFE0386EF3F5CE42F94249BEF3F2B
:104D3000D015051846AEEF3F03D9805467BFEF3F4B
:104D400003CAA53487CEEF3F5C93E3C3A4DBEF3FF8
:104D5000AF60262EBFE6EF3FFE43E4BFD5EFEF3F47
:104D6000D38C28E6E7F6EF3F86109D2EF5FBEF3F4C
:104D700012639147FDFEEF3F000000000000F03F8E
:104D8000A04D0008000000205C000000441D000849
:104D9000FC4D00085C00002084390000541D000810
:104DA00000A24A0400000000000000000102030409
:104DB00006070809000000000204060800000000C1
:104DC00001020304010203040607080900000000B1
:104DD00000000000000000000000000000000000D3
:104DE00000000000000000000000000000000000C3
:0C4DF000000000000000000000000000B7
:0400000508000131BD
:00000001FF
