:020000040800F2
:10000000C808002045010008FD110008E3090008A8
:10001000FB11000835090008551A0008000000000F
:10002000000000000000000000000000E1160008D1
:100030003709000800000000DF150008B9170008A4
:100040005F0100085F0100085F0100085F01000810
:100050005F0100085F0100085F0100085F01000800
:100060005F0100085F0100085F0100085F010008F0
:100070005F0100085F0100085F0100085F010008E0
:100080005F0100085F0100085F0100085F010008D0
:100090005F0100085F0100085F0100085F010008C0
:1000A0005F0100085F0100085F0100085F010008B0
:1000B0005F0100085F0100085F0100085F010008A0
:1000C0005F0100085F0100085F0100085F01000890
:1000D0005F0100080D1800085F0100085F010008BB
:1000E0005F0100085F0100085F0100085F01000870
:1000F0005F0100085F0100085F0100085F01000860
:100100005F0100085F0100085F0100085F0100084F
:100110005F0100085F0100085F0100085F0100083F
:100120005F0100085F0100085F0100085F0100082F
:10013000DFF80CD000F0DCFB00480047CD230008BE
:10014000C80800200648804706480047FEE7FEE74B
:10015000FEE7FEE7FEE7FEE7FEE7FEE7FEE7FEE777
:10016000BD17000831010008F0B480EA0102D40F85
:100170004200B2EB410F02D20246084611464A0045
:1001800042D0C30DDDB2C1F3C752AD1A202D35DA0E
:10019000C1F3160141F4000204B15242C5F1200638
:1001A00002FA06F12A411044B3EBD05F23D0C4B168
:1001B000012DA0EBC35009DCF0BC4FF0004202EA75
:1001C000C352DBB200F5000000F068BA400000F155
:1001D000807000EBC350A0F1807040EAD1704900FC
:1001E00009E0490841EAC071A0EBC35000F50000E6
:1001F000400800EBC350F0BC00F047BA6142012256
:1002000002EB4101001BF6E7F0BC704781F00041B2
:10021000AAE780F00040A7E780EA010210B502F0EB
:100220000043400022D04A001FD0010E01EB1261B2
:10023000C0F35600C2F3560240F4000042F400023C
:10024000A0FB022000047F39140400D0401C50EAB7
:10025000124001D44000491EC2B20C0604EBD0107B
:10026000401C4008802A02D003E0002010BD20F08E
:100270000100002900DA0020184310BD30B480EAE4
:10028000010202F0004530F0004221F0004013D09E
:1002900090B1C30DD40DC2F31601C0F31600E41AD9
:1002A00041F4000140F400027D34914201D3641C0A
:1002B00000E04900002C02DA30BC002070474FF407
:1002C00000000023914201D3891A034340084FEAFA
:1002D0004101F7D151B1914202D14FF0004105E007
:1002E00002D24FF0010101E06FF0010103EBC450B5
:1002F000284430BC00F0C9B92DE9FE4F804681EAA0
:100300000300C00F0C46009021F0004123F000458F
:10031000B8EB0200A94105D24046214690461C4652
:100320000B46024623F00040104347D0270DC7F389
:100330000A00C3F30A510290401A019040286BDA78
:10034000C3F3130040F4801B0098924620B10023B1
:10035000D2EB030A63EB0B0B01985946C0F1400244
:10036000504600F071F906460D4650465946019A2E
:1003700000F079F910EB08006141002487EA11527E
:1003800084EAE7731A4340D0009A62B3019A012AC3
:100390004FEA075215DC001B61EB02014FF00042EF
:1003A00002EA0752CDE90042001C41F580113246B5
:1003B0002B4600F0B0F903B0BDE8F08F404621466F
:1003C000F9E7001B61EB0201001C41F580130018E6
:1003D0005B412018A2F5001747EB030140EAD570F6
:1003E000B6196D4111E06D084FEA360645EAC07551
:1003F0004FEA0752001B61EB0201001C41F580111E
:1004000049084FEA30000019514132462B4603B0EB
:10041000BDE8F04F00F070B90098012240000023C1
:10042000D0EB020263EBE073009821464FEAE074E0
:10043000B8EB000061EB0401E9E783F000435BE700
:1004400081F0004158E72DE9FE4F81EA030404F0F2
:10045000004421F0004100944FF0000B23F00043D2
:1004600050EA01045ED052EA03045BD0C3F30A549D
:10047000C1F30A552C44A4F2F3340194A0FB0254B6
:10048000C1F3130141F48011C3F3130343F4801348
:1004900001FB024400FB034E840A970A44EA81549C
:1004A00047EA8357A4FB076802958D0A05FB078579
:1004B0004FEA932C04FB0C542705029D4FEA065883
:1004C00047EA1637B5EB08056EEB070C870E920E60
:1004D00047EA811742EA8312A7FB0201B6EB0B0140
:1004E00064EB00042B0D43EA0C335E1844EB1C5004
:1004F000DA465146E7FB0201C5F313044FEA0B331A
:1005000043EA14534FEA0432019C43EA0603A4F180
:100510000C040294009CCDE900B400F0FCF803B098
:10052000BDE8F08F00200146F9E79623002211462E
:1005300000F0B4B820F00040C10DC0F3160040F444
:1005400000007F2901DA00207047962903DCC1F101
:100550009601C840704796398840704700F00042C5
:1005600030F000400AD0C10D01F56071C0F31600F3
:1005700042EA0151C208400711437047002001467A
:10058000704701F0004330B421F0004150EA01020D
:1005900006D00A0DA2F56072C1F31301002A02DC35
:1005A00030BC00207047440F44EAC104C100E01889
:1005B00030BC00EBC25000F068B830B50B460146C5
:1005C00000202022012409E021FA02F59D4205D3F2
:1005D00003FA02F5491B04FA02F52844151EA2F19C
:1005E0000102F1DC30BD2DE9F05F054600209246A6
:1005F0009B4688460646814640241BE028464146E5
:100600004746224600F086F953465A46C01A9141A1
:1006100010D311461846224600F016F82D1A67EB43
:1006200001084F4622460120002100F00DF817EB8B
:1006300000094E41201EA4F10104DFDC484631468A
:100640002A464346BDE8F09F202A04DB203A00FA00
:1006500002F1002070479140C2F1200320FA03F319
:10066000194390407047202A06DBCB17203A41FA05
:1006700002F043EAE07306E041FA02F3D040C2F12F
:10068000200291400843194670470029A8BF7047CF
:10069000401C490008BF20F00100704710B4B0FAB8
:1006A00080FC00FA0CF050EA010404BF10BC704753
:1006B00049B1CCF1200421FA04F411FA0CF118BF6D
:1006C000012121430843A3EB0C01CB1D4FEA00613C
:1006D0004FEA102042BF002010BC704700EBC3500F
:1006E00010440029A4BF10BC7047401C490008BF3B
:1006F00020F0010010BC704710B5141E73F1000407
:1007000008DA401C41F1000192185B411A4301D103
:1007100020F0010010BD2DE9F04D92469B4611B12D
:10072000B1FA81F202E0B0FA80F220329046FFF78F
:100730008BFF04460F4640EA0A0041EA0B0153468C
:100740005A46084313D0114653EA010019D0C8F1A4
:100750004002504600F0DEF805460E465046594627
:100760004246FFF771FF084305D0012004E0204610
:100770003946BDE8F08D0020054346EAE0762C437B
:1007800037430A986305E40AA0EB08000022FD0A3B
:1007900044EA47540A3002D500200146E9E7010542
:1007A00010196941DDE9084500196941BDE8F04DBE
:1007B000A2E72DE9F04D81EA030404F0004B21F09B
:1007C000004514464FF0000A23F0004150EA0502AC
:1007D00020D054EA01021DD0C5F30A570246C5F3E2
:1007E0001303C1F31300C1F30A5640F4801543F418
:1007F0008013A7EB0608101BD64608F2FD3873EBF2
:10080000050002D308F1010801E092185B41B8F13C
:10081000000F03DA00200146BDE8F08D00204FF400
:100820008011064684460EE0171B73EB050705D3BF
:10083000121B63EB050306434CEA010C49084FEA1F
:10084000300092185B4150EA0107EDD152EA0300F3
:1008500012D082EA040083EA0501084305D0101B88
:10086000AB4106D20122002306E000224FF00043F4
:1008700002E06FF0010253101AEB06004CEB085136
:1008800010EB0A0041EB0B01BDE8F04DFFF734BF60
:10089000C1F30A52C1F3130140F2FF3341F4801156
:1008A0009A4202DA00200146704740F233439A42EE
:1008B000A2F2334202DC524200F02CB8FFF7C4BE71
:1008C00030B5041E71F1000404DB4FF000444042D7
:1008D00064EB0101141E73F1000405DB1C464FF0AC
:1008E0000043524263EB0403994208BF904230BD7B
:1008F000064C074D06E0E06840F0010394E807006D
:1009000098471034AC42F6D3FFF716FC00430008BA
:1009100020430008202A04DB203A21FA02F00021BB
:10092000704721FA02F3D040C2F1200291400843FF
:1009300019467047FEE770472DE9F0410022CC7858
:1009400004F00F03E40601D58C7823430C784FF0B4
:100950000F0714F0FF0F4FF0010C1CD005680CFAC4
:1009600002F40E882640A64211D1960007FA06F836
:1009700025EA080503FA06F848EA0505CE78282E88
:1009800002D0482E02D002E0446100E00461521C13
:10099000082AE4D305600A88FF2A1ED94568002288
:1009A00002F108060CFA06F40E882640A64210D181
:1009B000960007FA06F825EA080503FA06F848EA59
:1009C0000505CE78282E00D14461CE78482E00D17E
:1009D0000461521C082AE3D34560BDE8F08101613F
:1009E0007047FEE7002904D0018841F4806101804E
:1009F0007047018821F48061018070470346002020
:100A00009A8A1B8B1B041A4322F07F42914300D128
:100A100001207047002904D0018841F001010180C4
:100A20007047018821F001010180704710B586B040
:100A30000121082000F0F0FD0121480500F0D0FD63
:100A40001C208DF81700C020ADF8140003208DF88D
:100A5000160005A91048FFF76FFF104C204600F064
:100A600021F82115ADF80E100901ADF810100C4950
:100A700001914BF6FF71ADF80A100021ADF8081096
:100A8000ADF80C1001A9204600F05AF801212046CB
:100A9000FFF7C0FF06B010BD000C0140005400403D
:100AA000801A060010B50C4988420AD101214C0574
:100AB000204600F0A3FD2046BDE81040002100F0D4
:100AC0009DBD01218C05204600F098FD2046BDE823
:100AD0001040002100F092BD00540040002904D0D5
:100AE000018841F4807101807047018821F4807190
:100AF00001807047002904D0018841F40071018011
:100B00007047018821F40071018070470CB50246DE
:100B1000002000920A0F019221F07F41019A002AE1
:100B200003D0009A1432009203E0090C009A1832A4
:100B30000092009A12680A4200D001200CBD000009
:100B400070B586B004460D46A08820F03F0601A887
:100B500000F070FD03982849B0FBF1F189B20E4313
:100B6000A680228822F001022280244B2A689A4221
:100B700009D85200B0FBF2F080B2042800D2042061
:100B8000491C218423E0EB88A3F53F46FF3E0BD0B0
:100B900002EBC20303EB0212B0FBF2F080B240F4AE
:100BA0008040020506D007E002EB4202B0FBF2F003
:100BB00080B2F6E740F0010040F400404FF4967236
:100BC00051434FF47A72B1FBF2F1491C2184A083A6
:100BD000208840F00100208020884FF6F531084041
:100BE000A9886A89114301432180A889298908437A
:100BF000208106B070BD000040420F00A0860100B9
:100C00002DE9F0478146884615461C46012000EB39
:100C10004900C6B2DFF8D0A04FF40037394650463D
:100C2000FFF774FF0028F9D101215046FFF756FF66
:100C30002E4F50463946FFF7E1FE0028F9D04FEA23
:100C40004960010E0022504600F059F8DFF8A090EC
:100C500050464946FFF7D2FE0028F9D0414650469B
:100C600000F056F8DFF8888008F102084146504647
:100C7000FFF7C4FE0028F9D001215046FFF72EFFF0
:100C800039465046FFF7BAFE0028F9D0314656469D
:100C90000122304600F033F8144F7F1C39463046AD
:100CA000FFF7ACFE0028F9D0124F13E03CB9002149
:100CB0003046FFF797FE01213046FFF71BFF39460C
:100CC0003046FFF723FF0028F9D0304600F014F833
:100CD00005F8010B641EE4B2E8D23046BDE8F047E7
:100CE0000121FFF77FBE0000005400400100030017
:100CF0008200070040000010008AC0B27047002A3E
:100D000002D041F0010101E001F0FE0101827047D3
:100D1000018270472DE9F04104460E461546204FEA
:100D20004FF4003841463846FFF7F0FE0028F9D16D
:100D300001213846FFF7D2FEDFF868803846414689
:100D4000FFF75CFE0028F9D06006010E3C46002249
:100D50002046FFF7D4FF144F20463946FFF74EFEDA
:100D60000028F9D031462046FFF7D2FF0E4EB61EBE
:100D700031462046FFF742FE0028F9D0294620469A
:100D8000FFF7C6FF084DAD1C29462046FFF736FE8B
:100D90000028F9D02046BDE8F0410121FFF7AABEA6
:100DA00000540040010003008200070070B5144D9C
:100DB0002C1D687800281BD0617812A000F056FE28
:100DC00015A000F053FE20786178C0F1640008445B
:100DD00000EBC00101EB00104EF6602191FBF0F03A
:100DE00081B200206870BDE870400FA000F03EBEE8
:100DF000012068702178BDE870400FA000F036BE79
:100E00002C0000204D61785F696E6465785B315D10
:100E10003D25640D0A0000004D61785F696E6465D0
:100E2000785B315D3D0D0A0048656172745F526107
:100E3000746525640D0A00004D61785F696E646514
:100E4000785B305D3D25640D0A00000070B50646F4
:100E500000200022064CA31E1D7806E036F8123052
:100E6000834201D918466255521C8A42F6DB70BD96
:100E70002E00002070B5054628880022064C261F4B
:100E800007E035F81230834202D218467378E254F4
:100E9000521C8A42F5DB70BD300000202DE9F0477E
:100EA00007460D46164631463846FFF7CFFFFFF797
:100EB0003CFB564CA06031463846FFF7DBFFFFF79E
:100EC00034FBE06031462846FFF7C0FFFFF72DFBFB
:100ED000206131462846FFF7CDFFFFF726FB606112
:100EE00001462069FFF740F9FFF738FB02460B4641
:100EF00047A000F0BBFDD4E90201FFF787F9FFF737
:100F00002DFB02460B4647A000F0B0FDD4E90201DC
:100F1000FFF77CF90546D4E90401FFF725F92946D6
:100F2000FFF77AF9FFF71AFB02460B4643A000F0E1
:100F30009DFDD4E90401FFF769F9FFF70FFB0246B5
:100F40000B4647A000F092FDD4E90201FFF70CF92F
:100F5000FFF704FB02460B4646A000F087FDD4E9EC
:100F60000201FFF701F90546D4E90401FFF74EF944
:100F70002946FFF751F9FFF7F1FA02460B4643A065
:100F800000F074FD616920690D460646FFF73EF9E1
:100F90008146E168A0680F468046FFF7E5F84946BC
:100FA000FFF73AF9044639464046FFF72FF907465E
:100FB00029463046FFF7D8F83946FFF72DF9214684
:100FC000FFF75CF906463046FFF7C8FA384A394B56
:100FD000FFF739FA04460D4631463046FFF71CF953
:100FE000FFF7BCFA344A354BFFF72DFA22462B4661
:100FF000FFF782F9324A334BFFF77EF9FFF7C1FA68
:101000000446FFF7D3FE2046BDE8F0872C00002001
:1010100069725F6D61782B69725F6D696E3D2566DF
:101020000D0A00007265645F6D61782D7265645F02
:101030006D696E3D25660D0A0000000069725F6DE6
:1010400061782B69725F6D696E2A7265645F6D618C
:10105000782D7265645F6D696E3D25660D0A00002E
:1010600069725F6D61782D69725F6D696E3D25668D
:101070000D0A00007265645F6D61782B7265645FB4
:101080006D696E3D25660D0A0000000069725F6D96
:1010900061782D69725F6D696E2A7265645F6D613A
:1010A000782B7265645F6D696E3D25660D0A0000E0
:1010B000B4C876BE9F5A3E4048E17A14AE8746C017
:1010C000AE47E17A14B6574013460A460146572008
:1010D000FFF796BD0A4601465720FFF71BBE0000EA
:1010E00038B50121102000F097FA04208DF8030094
:1010F000C402ADF8004003208DF80200044D69469B
:101100002846FFF719FC21462846FFF768FC38BD42
:101110000010014010B5FFF7E3FFFFF787FCC82080
:1011200001F02EF9C0210220FFF7D4FF0021032097
:10113000FFF7D0FF00210420FFF7CCFF002105209E
:10114000FFF7C8FF00210620FFF7C4FF0F2108208A
:10115000FFF7C0FF03210920FFF7BCFF27210A206A
:10116000FFF7B8FF24210C20FFF7B4FF24210D2046
:10117000FFF7B0FF7F211020FFF7ACFF2421BDE86F
:101180001040FE20FFF7A6BF3EB50446012202A98B
:101190000020FFF799FF012202A91046FFF794FFF4
:1011A000062269460720FFF78FFF9DF800009DF893
:1011B0000110800340EA81109DF8021040EA91007E
:1011C00081B221809DF803009DF80420800340EA4D
:1011D00082109DF8052040EA920080B2608042F2C1
:1011E00010720023914200D22380904200D263808B
:1011F00020882080608860803EBDFEE77047000048
:1012000070B50F23C27801260178002A1ED0144A37
:10121000126802F4E062C2F5E062120AC2F104044C
:10122000D3404578A54082781A402A43120101F143
:10123000E02181F80024007800F01F018E40400971
:10124000800000F1E020C0F8006170BD01F01F00D7
:1012500086404809800000F1E020C0F8806170BD40
:101260000CED00E0024908430249086070470000A5
:101270000000FA050CED00E030B40021084B00221C
:10128000002003EBC0046254401CC0B28028F8D395
:10129000491CC9B20829F3D330BC00F0BDB8000026
:1012A0004800002010B50446002C03D10021A620E0
:1012B00000F08FF9012C05D10021BDE81040A720D6
:1012C00000F087B910BD10B50446002C07D10021ED
:1012D000C82000F07EF90021A12000F07AF9012C4D
:1012E00009D10021C02000F074F90021BDE81040B0
:1012F000A02000F06EB910BD30B5CB0801F0070496
:101300000125A540ECB2074D05EBC005C808002A31
:10131000285C02D02043E85430BDC0432043C04382
:10132000E85430BD4800002010B5C82001F028F86E
:101330000021AE2000F04DF90021084600F049F9E7
:101340000021102000F045F90021402000F041F973
:101350000021812000F03DF90021CF2000F039F973
:101360000021A12000F035F90021C82000F031F95A
:101370000021A62000F02DF90021A82000F029F975
:1013800000213F2000F025F90021D32000F021F9B1
:101390000021084600F01DF90021D52000F019F9C0
:1013A0000021802000F015F90021D92000F011F96A
:1013B0000021F12000F00DF90021DA2000F009F9F8
:1013C0000021122000F005F90021DB2000F001F9D6
:1013D0000021302000F0FDF80021202000F0F9F875
:1013E0000021022000F0F5F800218D2000F0F1F836
:1013F0000021142000F0EDF8FFF73EFF0021BDE8CA
:101400001040AF2000F0E5B80346012000E058434B
:10141000491EC9B2FBD2704770B500250F4E05F1C9
:10142000B000C0B2002100F0D4F80021084600F05E
:10143000D0F80021102000F0CCF8002406EBC40006
:101440000121405D00F0C5F8641CE4B2802CF5D3A6
:101450006D1CEDB2082DE2D370BD000048000020E5
:101460002DE9FC4F814688461D46CDF80090C346C5
:10147000082D03D0680704D0012003E00620019066
:1014800006E0002000EBD50069084843C0B2019097
:10149000203A02F0FF0A00264EE0082D14D00C2D51
:1014A00019D0102D1ED0182D49D127490AEBCA009A
:1014B00001EB8000845D0027E00718D041464846D4
:1014C0000B9AFFF719FF19E020490AEB4A0001EBDC
:1014D0004000845DEFE71E490AEB4A0001EB800003
:1014E000845DE8E71B4800EB0A10845DE3E70B9896
:1014F00038B3002241464846FFF7FEFE640808F173
:10150000010808F0FF087F1CFFB2082FD4D309F1AF
:10151000010909F0FF09082D0BD00098A9EB000084
:10152000B0EB550F05D1DDF800900BF1080B0BF077
:10153000FF0BD846761CF6B201988642ADD3BDE8C3
:10154000FC8F0122D6E700007C310008F02400085F
:10155000182700088C2B00082DE9F84F0746DDE915
:101560000A698B46924698460025082E00D102252E
:1015700000241DE0A8EB0400401EC1B20A20FFF7C2
:1015800043FFBAFBF0F00A21B0FBF1F201FB1200BD
:1015900090B13030C2B205EB560000FB0470C0B20F
:1015A00033465946CDF80090FFF75AFF641CE4B269
:1015B0004445DFD3BDE8F88F05EB560000FB04700F
:1015C000C0B2334630225946CDF80090FFF748FFAD
:1015D000ECE7002901D000F043BA00F03CBA7047B4
:1015E000054A002903D0D1690143D1617047D1690F
:1015F0008143D1617047000000100240054A002974
:1016000003D0116901431161704711698143116170
:101610007047000000100240054A002903D091697C
:101620000143916170479169814391617047000066
:101630000010024010B5264A516801F00C01254BFC
:10164000002927D0042927D0082927D00360516812
:1016500001F0F0010909204B5C5C0168E140416048
:10166000546804F4E064240A1C5D21FA04F48460E4
:10167000546804F46054E40A1B5DD940C1605268A8
:1016800002F44042920B144B1B1F9A5CB1FBF2F127
:10169000016110BD0360DAE70360D8E7516801F427
:1016A0007011536803F48033022404EB914133B189
:1016B00053689B0307D5094B59430160C7E7074BA4
:1016C00059430160C3E7034B59430160BFE7000082
:1016D0000010024000127A001C00002000093D00AA
:1016E0007047000010B5064C0146204600F0AEF9E8
:1016F0008021204600F0D4F80028F9D010BD000069
:1017000000380140AFF300800CB500220192009236
:101710002748016841F4803101604FF4A0630168FB
:1017200001F4003100910199491C0191009911B90E
:1017300001999942F3D10168890302D501210091F1
:1017400000E000920099012930D11A490A6842F05C
:1017500010020A600A6822F003020A600A6842F076
:1017600002020A604168416041684160416841F499
:1017700080614160416821F47C114160416841F41D
:10178000E8114160016841F08071016001688901E0
:10179000FCD5416821F003014160416841F002013C
:1017A00041604168C1F381010229FAD10CBD0000FA
:1017B000001002400020024000F0F6BD10B50F48B6
:1017C000016841F00101016041680D4A114041602A
:1017D00001680C4A11400160016821F48021016018
:1017E000416821F4FE0141604FF41F018160FFF761
:1017F00089FF05494FF00060086010BD00100240ED
:101800000000FFF8FFFFF6FE08ED00E010B5094C00
:1018100040F22551204600F04AF8002808D0204622
:1018200000F010F9C1B2BDE8104003A000F01EB9ED
:1018300010BD00000038014025630D0A00000000C3
:10184000002904D0818941F4005181817047818948
:1018500021F400518181704738B5012144F2040020
:10186000FFF7DAFE4FF40070ADF8000018208DF895
:10187000030001248DF80240084D69462846FFF711
:101880005BF8A102ADF8001004218DF803108DF86B
:10189000024069462846FFF74FF838BD000801406E
:1018A0000246002012880A4200D00120704770B51D
:1018B000002440F66A12C1F3421301F01F0501260D
:1018C00006FA05F2012B0CD0022B0DD0838A1340AF
:1018D000090A8E40008830400BB100B10124204637
:1018E00070BD83891340F3E7038A1340F0E710B516
:1018F00040F66A13C1F3421301F01F040121A14015
:10190000012B07D0022B07D014303AB102680A43EA
:10191000026010BD0C30F8E71030F6E702688A4329
:10192000026010BD30B585B004460D46208A4CF6E5
:10193000FF710840E98801432182A0894EF6F31126
:101940000840A9882A8911436A8902431143A18169
:10195000A08A4FF6FF410840A9890143A182684649
:10196000FFF768FE1D48844201D1039800E0029809
:10197000A189090408D500EBC00101EB001029681A
:101980004900B0FBF1F007E000EBC00101EB0010F3
:1019900029688900B0FBF1F06422B0FBF2F1090183
:1019A0000B096FF018056B4300EB8300A3891D043E
:1019B0004FF0320307D503EBC000B0FBF2F000F0AC
:1019C0000700084306E003EB0010B0FBF2F000F064
:1019D0000F000843208105B030BD000000380140F1
:1019E00010B586B04FF4E13001900020ADF808004A
:1019F000ADF80A00ADF80C00ADF810000C20ADF801
:101A00000E000F4C01A92046FFF78CFF012240F287
:101A100025512046FFF76BFF01212046FFF710FFFD
:101A200025208DF8140001208DF817008DF8150081
:101A30008DF8160005A8FFF7E3FB06B010BD000007
:101A4000003801408088C0F308007047C1F30801E6
:101A500081807047FEE7024600213C20FFF75AB91B
:101A6000024640213C20FFF755B900000FB4054B5A
:101A700010B503A9044A029800F0EAF810BC5DF81A
:101A800014FB0000BD230008440000200907090ED4
:101A9000002804DB00F1E02080F80014704700F01B
:101AA0000F0000F1E02080F8141D704702E008C824
:101AB000121F08C1002AFAD170477047002001E0C8
:101AC00001C1121F002AFBD1704700002DE9FF5F02
:101AD00082B00021DDE90430020DDDF840B003439F
:101AE00018D044F61050A2F2FF3242431514119858
:101AF00001281FD0A5EB0B00401C5FEA000A4FF045
:101B000000064E4FDFF83891B046504615D5CAF161
:101B1000000413E0119801244AA3012801D16FEABF
:101B20000B010298119AC0E90031C0E9024206B0E7
:101B3000BDE8F09FCBF10000DFE704460021404AFA
:101B4000491842EB0450CDE9001012E0E00707D03D
:101B500032463B4640464946FEF775FC804689467C
:101B600032463B4610461946FEF76DFC06460F46C8
:101B70006410002CEAD1DDE90401DDE90023BAF1AB
:101B8000000F06DAFEF75FFC42464B46FEF75BFCB1
:101B900005E0FEF70EFE42464B46FEF70AFE0446FF
:101BA0000E460022284BFEF78BFE03D84FF0FF3085
:101BB000014607E00022254B20463146FEF79CFBFC
:101BC000FEF766FE102409E0002C0ADB0A2200233F
:101BD000FEF709FD039B30321A55641E50EA0102DC
:101BE000F2D1641C039AC4F111031444119A012A1E
:101BF00003D0012208430DD10AE0084304D000209D
:101C00004FF0110B119072E7A3EB0B056D1E0DE069
:101C10005B4504DD4FF0000205F1010504E003DA45
:101C20004FF00002A5F10105002AECD002981199AD
:101C3000C0E90231C0E9004579E700000000144026
:101C40000000F03F300000000000F0430000E03FE3
:101C50002DE9FF4F95B09B468946064600250FE2C9
:101C6000252877D100242746F84A0121059400E071
:101C7000044316F8013F203B01FA03F01042F7D16C
:101C800030782A2811D06FF02F033078A0F130027D
:101C9000092A16D8059A44F0020402EB820203EBEB
:101CA00042021044761C0590EFE759F8042B059288
:101CB000002A03DA504244F40054059044F0020430
:101CC000761C30782E2816D116F8010F44F0040443
:101CD0002A280DD06FF02F023078A0F13003092BA5
:101CE00009D807EB870302EB4303C718761CF3E719
:101CF00059F8047B761C30786C280FD006DC4C2811
:101D000017D068280DD06A2814D104E0742810D0A8
:101D10007A280FD10DE044F400140AE044F4801452
:101D200001E044F440147278824202D104F5801438
:101D3000761C761C307866280BD013DC582877D0B8
:101D400009DC002875D04528F6D04628F4D047286D
:101D50001AD19DE118E0632835D0642879D0652830
:101D600012D195E1702873D008DC6728F1D069287A
:101D70006FD06E280DD06F2806D1B5E073282CD017
:101D8000752875D0782874D05A46179990476D1CDD
:101D900075E1C4F30250022809D003280DD0D9F808
:101DA000001004280DD00D6009F1040967E1D9F88D
:101DB0000010EA17C1E90052F6E7D9F800100D80CB
:101DC000F2E70D70F0E719F8041B8DF80010002001
:101DD0008DF80100EA46012003E059F804AB4FF00A
:101DE000FF3061074FF0000102D40DE008F101015E
:101DF0008846B9420FDA8045F8DB1AF80810002946
:101E0000F4D108E008F1010188468142FADB1AF8B2
:101E100008100029F6D105985B46A0EB080721467B
:101E20003846179A00F094FA284400EB080507E0BA
:101E30004DE029E10DE01AF8010B5A461799904739
:101E4000B8F10108F7D25B4621463846179A13E1EC
:101E500042E00A220092C4F302524FF0000A022A22
:101E600008D059F804CB032A4FEAEC710AD00DE0F0
:101E700029E02AE009F1070121F00702F2E802C196
:101E8000914609E00FFA8CFC4FEAEC71042A03D169
:101E90004FFA8CFC4FEAEC71002907DA0A46002160
:101EA000DCF1000C61EB02012D2202E0220504D5D9
:101EB0002B228DF80420012203E0E20701D020222A
:101EC000F7E7904659E00A2102E010220DE01021C8
:101ED0004FF0000A00910BE010224FF0000A44F08E
:101EE00004040827009203E008224FF0000A009241
:101EF000C4F30252022A05D059F804CB0021032A68
:101F000008D009E009F1070121F00702F2E802C157
:101F1000914605E01FFA8CFC042A01D10CF0FF0C5D
:101F20004FF00008220728D5702806D0009B83F0C8
:101F3000100353EA0A0305D00EE040228DF8042076
:101F4000012208E05CEA010206D030228DF804206C
:101F50008DF8050002229046009B83F0080353EAA7
:101F60000A030AD15CEA010201D1620705D53022D9
:101F70008DF804204FF001087F1E582804D034A0AB
:101F800003900EA802900DE036A0F9E75346604694
:101F9000009AFEF728FB84460398825C0298401E54
:101FA000029002705CEA0100F0D1029806A9081ABA
:101FB00000F1200A600702D524F4803400E00127F4
:101FC000574502DDA7EB0A0000E0002000EB0A0104
:101FD000009005984144401A0590E00306D45B4602
:101FE0002146179A059800F0B3F90544002706E04A
:101FF00001A85A46C05D179990476D1C7F1C474544
:10200000F6DBE0030CD55B462146179A059800F0F5
:102010009FF9054404E030205A46179990476D1CFB
:102020000099481E00900029F5DC08E0029802990A
:102030005A460078491C0291179990476D1CBAF1D5
:102040000001AAF1010AF1DC65E1000009280100A4
:10205000303132333435363738396162636465661E
:1020600000000000303132333435363738394142E0
:10207000434445460000000000F058F90544761C32
:10208000307800287FF4ECAD19B02846BDE8F08F19
:10209000620700D4062709F1070222F0070CFCE8CA
:1020A0000223E14603F000485FEA080C02D00FF279
:1020B000702C0DE05FEA045C02D50FF2682C07E09B
:1020C0005FEAC47C02D00FF2602C01E0AFF2700C2A
:1020D0004FF0FF3823F00043CDF850C065280CD0F6
:1020E00006DC452809D046281DD047283DD13DE0D3
:1020F000662818D067287ED138E00021112F01DB37
:10210000112000E0781CCDE9000106A90EA8FFF718
:10211000DDFCDDE90F010E9A03910021009207F129
:10212000010A04914DE04FF000400097CDE9011005
:1021300006A90EA8FFF7CAFCDDE90F0203920E9B69
:1021400011990022DDF80CA00093049211B9791CBA
:1021500000EB010AB7EB0A0004D4C0F1FF3007F12D
:10216000010A0490AAEB0700019044E0012F00DA75
:1021700001270021112F01DD112000E03846CDE9B3
:10218000000106A90EA8FFF7A1FCDDE90F010E9AD8
:102190000391002104910092BA4621070CD40399BF
:1021A000514500DA8A46BAF1010F05DD009AAAF11D
:1021B0000101515C302908D0B84202DA10F1040F55
:1021C00006DA0121CDE9011015E0AAF10101E9E7E4
:1021D000002805DC049901440491AAEB000102E007
:1021E000411C514500DD8A460499401A401C01906B
:1021F0004FF000400290200704D40198504501DBC5
:10220000CDF8048000208DF84F0002980DF14F07A3
:10221000B0F1004F25D02B200E9002984FF002080D
:1022200000280CDA404202902D200E9007E00A218F
:102230000298FEF7C2F93031029007F8011DB8F19B
:102240000001A8F10108F2DC02980028EFD1791E04
:102250000E980870307800F0200040F0450007F834
:10226000020D12A8C01B00F107081498007800B1F5
:10227000012000EB0A01019801EBE071059841444F
:10228000401A401E0590E00306D45B462146179A8B
:10229000059800F05DF805441498007818B15A4686
:1022A000179990476D1CE00324D55B462146179A89
:1022B000059800F04DF805441CE00498002807DB61
:1022C000DDE90301884203DD0098405C179901E0D5
:1022D000179930205A469047049805F10105401C93
:1022E00004900198401E019004D12E205A4617995F
:1022F00090476D1CBAF10001AAF1010ADDDC05E08E
:1023000017F8010B5A46179990476D1CB8F1000158
:10231000A8F10108F4DC5B462146179A0598ABE664
:102320002D0000002B000000200000002DE9F041EE
:10233000044600251E461746880404D405E03946A5
:102340002020B0476D1C641EF9D52846BDE8F081F9
:102350002DE9F041044600251E469046C80301D5EC
:10236000302700E02027880404D505E041463846A0
:10237000B0476D1C641EF9D52846BDE8F081000009
:102380004FF47A7148430349086008680028FCD17B
:102390007047000014000020024908600868002807
:1023A000FCD170471400002003480168002902D0C6
:1023B0000168491E016070471400002010B50446F2
:1023C000E0B2FFF78FF9204610BD0000E8B04FF4EF
:1023D000A060FEF747FF00F065F8FFF73DFAFFF752
:1023E000FFFAFEF797FE23A0FFF740FB0220FFF75E
:1023F000D3FFFEF799FF0020FEF754FF0020FEF701
:1024000062FF35AD03AE002467A8FEF7BDFEBDF840
:102410009C0125F81400BDF89E0126F81400641CE8
:10242000E4B2642CF0D3BDF89C1116A0FFF71EFB9C
:10243000BDF89E1116A0FFF719FB642203A935A869
:10244000FEF72CFDFEF776F884B2214613A0FFF7C5
:102450000DFB01201021CDE90010002102232246AE
:102460000846FFF779F8FEF7D7FF4FF47A70FFF7C9
:1024700087FFC8E773746172745F696E69740D0ACF
:1024800000000000705F7265643D25640D0A000065
:10249000705F69723D25640D0A000000723D25647D
:1024A0000D0A000070B5104810490068B0FBF1F14A
:1024B000491E4FF0FF35B1F1807F01D301210BE0C0
:1024C0004FF0E02461610F212846FFF7DFFA00207A
:1024D000A06107202061002101B1FEE72846BDE888
:1024E00070400021FFF7D2BA0000002000350C0038
:1024F0000000000000000000002F000000000700A6
:10250000070000147F147F1400242A7F2A1200621F
:1025100064081323003649552250000005030000CB
:1025200000001C224100000041221C000014083E53
:1025300008140008083E0808000000A06000000819
:10254000080808080000606000000020100804026D
:10255000003E5149453E0000427F4000004261512B
:102560004946002141454B31001814127F100027C5
:1025700045454539003C4A49493000017109050388
:1025800000364949493600064949291E00003636B9
:10259000000000005636000000081422410000141C
:1025A00014141414000041221408000201510906F9
:1025B00000324959513E007C1211127C007F49497A
:1025C0004936003E41414122007F4141221C007FAB
:1025D00049494941007F09090901003E4149497AB9
:1025E000007F0808087F0000417F41000020404133
:1025F0003F01007F08142241007F40404040007F9F
:10260000020C027F007F0408107F003E4141413EE2
:10261000007F09090906003E4151215E007F09192A
:1026200029460046494949310001017F0101003F27
:102630004040403F001F2040201F003F4038403FA7
:10264000006314081463000708700807006151490B
:10265000454300007F41410000552A552A5500009E
:1026600041417F000004020102040040404040401C
:10267000000001020400002054545478007F4844B4
:10268000443800384444442000384444487F0038EB
:102690005454541800087E0901020018A4A4A47C14
:1026A000007F080404780000447D400000408084DE
:1026B0007D00007F102844000000417F4000007C26
:1026C00004180478007C0804047800384444443832
:1026D00000FC242424180018242418FC007C08047E
:1026E000040800485454542000043F444020003C57
:1026F0004040207C001C2040201C003C4030403CDE
:10270000004428102844001CA0A0A07C004464546D
:102710004C441414141414140000000000000000B1
:10272000000000000000FC000000000002000000AB
:10273000000C020C020000000000000090D0BCD091
:10274000BC900003000300001824FE448C00030228
:10275000070201001824D8B04C80000300010201D8
:10276000C038E438E000010202010202080600005D
:102770000000000000000000000000F8040200005B
:1027800000010204000204F800000004020100003D
:102790009060F86090000000010000002020FC2004
:1027A00020000000010000000000000000000806FA
:1027B0000000000020202020200000000000000079
:1027C0000000000000000002000000000080601C0B
:1027D0000200040300000000F8040404F8000102F1
:1027E000020201000008FC000000000203020000D9
:1027F000188444241800030202020200080424245E
:10280000D80001020202010040B088FC80000000F4
:10281000000302003C242424C4000102020201003F
:10282000F824242CC0000102020201000C04E41C64
:102830000400000003000000D8242424D800010272
:102840000202010038444444F8000003020201007F
:102850000000100000000000020000000000200046
:102860000000000006000000002050880402000064
:102870000000010290909090900000000000000085
:102880000002048850200002010000001804C42443
:102890001800000002000000F804E494F8000102AF
:1028A0000202020000E09CF080000203000003022C
:1028B00004FC2424D800020302020100F8040404EA
:1028C0000C0001020202010004FC0404F8000203EF
:1028D0000202010004FC24740C0002030202030043
:1028E00004FC24740C00020302000000F0080444FD
:1028F000CC4000010202010004FC2020FC04020381
:10290000000003020404FC040400020203020200AB
:10291000000404FC040406040403000004FC24D0A6
:102920000C0402030200030204FC04000000020382
:1029300002020203FC3CC03CFC0003000300030055
:1029400004FC30C4FC04020302000300F804040485
:10295000F80001020202010004FC24241800020312
:1029600002000000F8848404F80001020207050058
:1029700004FC246498000203020003021824244487
:102980008C000302020201000C04FC040C00000293
:102990000302000004FC0000FC040001020201002C
:1029A000047C80E01C040000030000001CE03CE00C
:1029B0001C00000300030000049C609C0400020350
:1029C00000030200041CE01C0400000203020000DB
:1029D0000C84641C04000203020203000000FE02D7
:1029E0000200000007040400000E30C000000000D8
:1029F00000010200000202FE0000000404070000C3
:102A000000040204000000000000000000000000BC
:102A10000000080808080808000002000000000084
:102A2000000000000040A0A0C0000001020203025C
:102A300004FC2020C00000030202010000C020208E
:102A4000600000010202020000C02024FC0000011E
:102A50000202030200C0A0A0C000000102020200A6
:102A60000020F82424040002030202000040A0A079
:102A7000602000070A0A0A0404FC2020C0000203A8
:102A8000020003020020E400000000020302000034
:102A9000000020E4000008080807000004FC80E0B3
:102AA00020200203020003020404FC0000000202D2
:102AB00003020200E020E020C00003000300030046
:102AC00020E02020C00002030200030200C02020FA
:102AD000C00000010202010020E02020C000080F19
:102AE0000A02010000C02020E0000001020A0F08D5
:102AF00020E0402020000203020000000060A0A0AF
:102B000020000002020203000020F8200000000064
:102B10000102020020E00020E000000102020302A6
:102B200020E0208060200000030100006080E08041
:102B300060000003000300002060806020000203AA
:102B40000003020020E02080602008080701000048
:102B50000020A0602000000203020200000020DE2E
:102B60000200000000070400000000FF0000000059
:102B7000000F00000002DE2000000004070000003B
:102B80000201020404020000000000000000000036
:102B9000000000000000000000000000000000F83D
:102BA00000000000000000333000000000100C06A0
:102BB000100C0600000000000000000040C078403B
:102BC000C0784000043F04043F040400007088FC07
:102BD00008300000001820FF211E0000F008F0005F
:102BE000E018000000211C031E211E0000F00888D0
:102BF000700000001E2123241927211010160E003A
:102C0000000000000000000000000000000000E0E4
:102C100018040200000000071820400000020418F9
:102C2000E00000000040201807000000404080F055
:102C3000804040000202010F01020200000000F08B
:102C4000000000000101011F01010100000000005F
:102C50000000000080B070000000000000000000D4
:102C6000000000000001010101010101000000005D
:102C700000000000003030000000000000000000F4
:102C800080601804006018060100000000E01008D1
:102C90000810E000000F102020100F00001010F8A6
:102CA000000000000020203F2020000000700808E5
:102CB0000888700000302824222130000030088865
:102CC000884830000018202020110E000000C0208D
:102CD00010F8000000070424243F240000F80888AE
:102CE000880808000019212020110E0000E010883B
:102CF00088180000000F112020110E00003808086D
:102D0000C83808000000003F00000000007088087C
:102D100008887000001C222121221C0000E01008FD
:102D20000810E0000000312222110F00000000C056
:102D3000C0000000000000303000000000000080F3
:102D400000000000000080600000000000008040E3
:102D500020100800000102040810200040404040FC
:102D6000404040000404040404040400000810204F
:102D70004080000000201008040201000070480894
:102D80000808F0000000003036010000C030C828FC
:102D9000E810E0000718272423140B000000C038B7
:102DA000E0000000203C23020227382008F8888831
:102DB00088700000203F202020110E00C03008083D
:102DC00008083800071820202010080008F8080814
:102DD0000810E000203F202020100F0008F888880D
:102DE000E8081000203F20202320180008F88888D9
:102DF000E8081000203F200003000000C030080851
:102E00000838000007182020221E020008F80800D9
:102E10000008F808203F210101213F20000808F8A0
:102E2000080800000020203F2020000000000808C3
:102E3000F8080800C08080807F00000008F888C083
:102E400028180800203F20012638200008F8080034
:102E500000000000203F20202020300008F8F8006B
:102E6000F8F80800203F003F003F200008F830C07D
:102E70000008F808203F200007183F00E01008086D
:102E80000810E0000F10202020100F0008F808089C
:102E90000808F000203F210101010000E0100808AF
:102EA0000810E0000F18242438504F0008F88888D4
:102EB00088887000203F2000030C302000708808B4
:102EC000080838000038202121221C00180808F8C2
:102ED000080818000000203F2000000008F8080043
:102EE0000008F808001F202020201F000878880014
:102EF00000C83808000007380E010000F80800F884
:102F00000008F800033C0700073C0300081868802D
:102F10008068180820302C03032C30200838C800A3
:102F2000C83808000000203F2000000010080808F2
:102F3000C83808002038262120201800000000FE94
:102F4000020202000000007F40404000000C30C040
:102F500000000000000000010638C000000202026C
:102F6000FE000000004040407F000000000004021E
:102F70000202040000000000000000000000000049
:102F80000000000080808080808080800002020439
:102F90000000000000000000000000000000808031
:102FA000808000000019242222223F2008F800809F
:102FB00080000000003F112020110E000000008062
:102FC00080800000000E11202020110000000080F1
:102FD0008088F800000E112020103F200000808023
:102FE00080800000001F222222221300008080F037
:102FF000888888180020203F202000000000808062
:1030000080808000006B94949493600008F80080A6
:1030100080800000203F210000203F200080989801
:10302000000000000020203F202000000000008061
:103030009898000000C08080807F000008F80000A1
:1030400080808000203F24022D302000000808F8F6
:10305000000000000020203F2020000080808080B1
:1030600080808000203F20003F20003F8080008043
:1030700080800000203F210000203F200000808051
:1030800080800000001F202020201F008080008002
:103090008000000080FFA12020110E0000000080B1
:1030A00080808000000E112020A0FF8080808000A2
:1030B0008080800020203F212000010000008080CF
:1030C000808080000033242424241900008080E0C4
:1030D000808000000000001F202000008080000091
:1030E00000808000001F202020103F208080800072
:1030F0000080808000010E30080601008080008082
:10310000008080800F300C030C300F0000808000A6
:10311000808080000020312E0E31200080808000D1
:103120000080808080818E70180601000080808081
:10313000808080000021302C22213000000000001F
:10314000807C020200000000003F404000000000C0
:10315000FF00000000000000FF0000000002027CF1
:10316000800000000040403F000000000006010118
:103170000202040400000000000000000000000043
:10318000000000000000000000000000000000003F
:10319000000000000000000000000000000000002F
:1031A0000000000000F0F0F000000000000000004F
:1031B00000017F010000000000000000001C1C1C3A
:1031C0000000000000008060301C8C60301C0C008F
:1031D00000000000000000000000000000000000EF
:1031E0000000000000000000000000E000000000FF
:1031F00000E000000086E69F86868686E69F8600C1
:1032000000011F01010101011F010100000080C038
:103210006020F820E0C00000000003070C18FF70D9
:10322000E18100000000070F10107F100F07000061
:103230008060206080000000E02000000F3020301F
:103240009F70DC371030C0000000100E030007181C
:10325000101807000000C02020E0C000000000009F
:1032600080E01F38E88703C43C040000070F1810F3
:10327000100B070D1010080000808C4C3800000067
:10328000000000000000000000000000000000003E
:10329000000000000000000000000000000000002E
:1032A000000080E0300804000000000000FEFF0184
:1032B00000000000000000000000030F1820400084
:1032C00000040830E0800000000000000000000062
:1032D00001FFFE0000000000004020180F03000066
:1032E00000000000000000000000C000000000001E
:1032F000004266663C18FF183C666642000000000B
:10330000000003000000000000000000000080003A
:1033100000000000001010101010FF10101010100E
:10332000000000000000030000000000000000009A
:10333000000000000000000000000000000000008D
:103340000000000000808C4C3800000000000000ED
:10335000000000000000000000000000001010103D
:1033600010101010101010000000000000000000ED
:10337000000000000000000000000000000000004D
:1033800000000000000000000000000000001C1C05
:103390001C00000000000000000000000000000011
:1033A000E0380C000000000080701C0300000000EA
:1033B0000060380E0100000000000000000080C026
:1033C00060202060C080000000FEFF0100000000BF
:1033D00001FFFE000001070E181010180E07010073
:1033E0000000808080C0E0000000000000000000BD
:1033F00000FFFF000000000000001010101F1F1051
:10340000101000000080402020202060C0800000BC
:1034100000030300804020381F070000001C1A1919
:1034200018181818181F00000080C020202060C045
:1034300080000000000303001010182FE780000038
:1034400000070F10101010180F07000000000000F8
:103450000000C0E0F000000000C0B088868180FF5E
:10346000FF808000000000000010101F1F101000DF
:103470000000E060606060606060000000003F107D
:1034800008080818F0E0000000070B101010101CCE
:103490000F030000000080C040202020E0C000009A
:1034A00000FCFF211008080818F0E0000001070CDC
:1034B00018101010080F03000000C0E0606060608A
:1034C00060E06000000003000000E018070000005A
:1034D00000000000001F1F00000000000080C0600E
:1034E0002020202060C080000087EF2C181830308A
:1034F00068CF830000070F0810101010180F070086
:103500000000C0C020202020C0800000001F3F60BD
:103510004040402010FFFE0000000C1C101010085E
:103520000F03000000000000000000000000000089
:1035300000000000000E0E0E000000000000000061
:10354000001C1C1C00000000000000000000000027
:103550000000000000000000000C0C000000000053
:1035600000000000005838000000000000000000CB
:10357000000000804020100000001028448201005C
:10358000000000000000000000000102040810001C
:10359000000000000000000000000000008484849F
:1035A000848484848484840000000000000000007F
:1035B000000000000000102040800000000000001B
:1035C00000000000000001824428100000001008E4
:1035D000040201000000000000C0202010101010A4
:1035E00030E0C0000003030000F010080C070300E7
:1035F000000000001C1C1C0000000000000000C0B7
:10360000406020202040C00000FCFF01F00E03C1FC
:10361000FE03807F0001070E08111110110904023A
:103620000000000080E0E000000000000000807C5E
:103630004340477FF880000010181F100000000072
:10364000131F1C1020E0E02020202060C08000001C
:1036500000FFFF10101010182FE78000101F1F1020
:1036600010101010180F0700000080C0402020200C
:103670002060E00000FCFF010000000000000100ED
:103680000001070E181010100804030020E0E020CD
:1036900020202040C080000000FFFF00000000004C
:1036A00001FFFE00101F1F10101018080E07010068
:1036B00020E0E020202020202060800000FFFF107C
:1036C0001010107C00000000101F1F1010101010B0
:1036D0001018060020E0E0202020202060608000FC
:1036E00000FFFF101010107C00000100101F1F10C1
:1036F0000000000000000000000080C060202020CA
:1037000040E0000000FCFF0100004040C0C140401C
:103710000001070E181010100F0F000020E0E0202D
:103720000000000020E0E02000FFFF10101010104B
:1037300010FFFF00101F1F1000000000101F1F10BF
:103740000000202020E0E0202020000000000000F9
:1037500000FFFF000000000000001010101F1F10ED
:103760001010000000000000202020E0E0202020B9
:1037700000000000000000FFFF0000000060E0808B
:103780008080C07F3F00000020E0E020000020A0FB
:103790006020200000FFFF30187CE3C00000000024
:1037A000101F1F10000001131F1C181020E0E02044
:1037B000000000000000000000FFFF00000000000B
:1037C00000000000101F1F1010101010101806002D
:1037D00020E0E0E000000000E0E0E02000FF013F2A
:1037E000FEC0E01E01FFFF00101F1000031F0300BA
:1037F000101F1F1020E0E0C0000000000020E020AB
:1038000000FF0003071C78E08000FF00101F10007D
:1038100000000000030F1F00000080C06020206037
:10382000C080000000FEFF010000000000FFFE005D
:103830000001070E181010180C07010020E0E0200E
:103840002020202060C0800000FFFF2020202020BA
:10385000301F0F00101F1F100000000000000000AC
:10386000000080C060202060C080000000FEFF01DA
:103870000000000000FFFE000001070E1111133CC4
:103880007C67210020E0E0202020202060C0800014
:1038900000FFFF101030F0D0080F0700101F1F109E
:1038A000000000030F1C10100080C06020202020AA
:1038B0004040E00000070F0C1818303060E0810035
:1038C000001F0C0810101010180F07008060202037
:1038D00020E0E020202060800100000000FFFF00C9
:1038E0000000000100000000101F1F100000000079
:1038F00020E0E020000000000020E02000FFFF00AA
:10390000000000000000FF0000070F18101010104A
:10391000100807002060E0E02000000020E06020A8
:103920000000077FF88000807C030000000000009A
:10393000071F1C070000000020E0E02000E0E0205E
:103940000020E0200007FFF8E01FFFFCE01F000060
:103950000000031F0300011F03000000002060E0BF
:10396000A0000020E0602000000000038F7CF8C66B
:10397000010000000010181E130001171F1810008E
:103980002060E0E02000000020E06020000001074F
:103990003EF8E0180700000000000010101F1F1084
:1039A0001000000000806020202020A0E0E0200027
:1039B00000000000C0F03E0F0300000000101C1FBC
:1039C00017101010101806000000000000FC04047E
:1039D000040404000000000000FF000000000000DC
:1039E00000000000007F404040404000000010E028
:1039F000000000000000000000000000031C6080C8
:103A00000000000000000000000000030C708000B7
:103A100000000404040404FC000000000000000096
:103A2000000000FF00000000000040404040407FD8
:103A30000000000000000010080C040C081000003A
:103A40000000000000000000000000000000000076
:103A50000000000000000000000000000000000066
:103A60000000000000000000000000000000000056
:103A70008080808080808080808080800000000442
:103A80000408080000000000000000000000000022
:103A90000000000000000000000000000000000026
:103AA000000000000000000000000000000098D8A6
:103AB00044642424FCF80000000F1F1810101008A4
:103AC0001F1F10180020E0F00000000000000000A0
:103AD0000000FFFF180804040CF8F00000001F0F9E
:103AE00018101010180F0300000000000000000064
:103AF0000000000000E0F8180404043C3800000056
:103B000000030F0C10101010080600000000000049
:103B100000000020E0F0000000E0F81C04040408AD
:103B2000FFFF000000030F18101010081F0F0800FF
:103B30000000000000000000000000000000E0F8AD
:103B4000484444444C7870000000030F0C181010D7
:103B5000100804000000000080C0602020E0C000C9
:103B600000040404FFFF040404040000000010101B
:103B70001F1F1010100000000000000000000000D7
:103B800000000000000070F88C04048CF874040C31
:103B9000007076CF8D8D8D89C87870000020E0F0A0
:103BA00000000000000000000000FFFF0804040403
:103BB000FCF8000000101F1F100000101F1F100055
:103BC000000000000060600000000000000004042D
:103BD00004FCFC000000000000001010101F1F106B
:103BE00010100000000000000000006060000000F5
:103BF00000000000040404FCFC0000000000C0C041
:103C00008080C07F3F0000000020E0F00000000046
:103C1000000000000000FFFF80C0F41C040400004E
:103C200000101F1F1100031F1C1010000000202097
:103C300020E0F000000000000000000000FFFF0096
:103C40000000000000001010101F1F1010100000D6
:103C500000000000000000000000000004FCFC0860
:103C600004FCFC0804FCFC00101F1F10001F1F10A8
:103C7000001F1F10000000000000000000000000F6
:103C80000004FCFC08080404FCF8000000101F1FDE
:103C9000100000101F1F10000000000000000000B6
:103CA0000000000000E0F0180C04040C18F0E00024
:103CB00000030F0C101010100C0F03000000000088
:103CC00000000000000000000004FCFC08040404E4
:103CD0000CF8F0000080FFFF889010101C0F03000C
:103CE00000000000000000000000000000E0F81CE0
:103CF00004040408F8FC000000030F18101090885A
:103D0000FFFF800000000000000000000000000035
:103D1000040404FCFC100804040C0C001010101F18
:103D20001F10101000000000000000000000000044
:103D30000000000000003078CCC48484840C1C0097
:103D400000001E1810101011190F060000000000CE
:103D500000C000000000000000040404FFFF040491
:103D600004000000000000000F1F1010100C0000E5
:103D70000000000000000000000000000004FCFE45
:103D800000000004FCFE000000000F1F18101008C7
:103D90001F0F0800000000000000000000000000ED
:103DA00000040C3CFCC40000C43C0C0400000000F7
:103DB000010F1E0E010000000000000000000000C6
:103DC00000000000043CFCC400E47CFC84807C0413
:103DD0000000071F070000071F0700000000000089
:103DE00000000000000000000004041C7CE4C0345B
:103DF0001C0404000010101C1601131F1C181000D6
:103E000000000000000000000000000000040C3C66
:103E1000FCC400C43C0404000000C080C1370E0193
:103E20000000000000000000000000000000000092
:103E300000001C0404C4F47C1C0400000000101CDE
:103E40001F17111010180E0000000000000000F8ED
:103E50000C04000000000000001028EF000000002B
:103E6000000000000000003F604000000000000073
:103E70000000FF0000000000000000000000FF0044
:103E800000000000000000000000FF000000000033
:103E90000000040CF800000000000000000000001A
:103EA000EF28100000000000000040603F0000000C
:103EB000000000000018060202040810202030084C
:103EC00000000000000000000000000000000000F2
:103ED00000000000000000000000F010101010FFB3
:103EE00010101010F000000000000F04040404FF84
:103EF000040404040F0000004040405F5555557510
:103F00005555555F404040000040200F09498979D0
:103F10000909090F2040000000FE02424ACA4A4A2D
:103F2000CA4A4A4202FE000000FF40504C43404053
:103F30004F50505C40FF00000000F888888888FFE0
:103F400088888888F800000000001F080808087F9B
:103F5000888888889F80F00080828282828282E2C4
:103F6000A2928A8682808000000000000040807F4C
:103F70000000000000000000101010FF10900888E2
:103F80008888FF88888808000444827F01808040F8
:103F9000432C1028468180000010101010D030FFF4
:103FA00030D0121C1010000010080402010000FFA5
:103FB000000001020408100004040484E43C2724E7
:103FC000242424E40404040004020100FF09090974
:103FD0000949897F0000000000FE225A8600FE92F7
:103FE00092929292FE00000000FF04080700FF403A
:103FF00020030C142241400000804020180680005D
:104000000718204080000000010020702826212091
:1040100020243860000101000010129292929292C6
:1040200092121202FE0000000000003F101010105B
:104030003F0040807F000000000000C08080808042
:10404000808080FC84808080808080C0C0000000F0
:10405000000000FF7F404040404040FF4040404063
:10406000404040FF7F000000000000000000000012
:104070000000007F70000000000000000000000051
:10408000000000000000000000000000000000FC34
:10409000F800000000000000000000000000000028
:1040A00000000000FFFE020202020202020202FF02
:1040B000FF020202020202020202FF0300000000ED
:1040C000000000001F1F040404040404040404FF8F
:1040D000FF0404040404040404041F00000000009E
:1040E0000000000000000000000000000000007F51
:1040F0003F00000000000000000000000000000081
:1041000000000000000000000000000000000000AF
:1041100000000000000000000000000000F8F8F0BF
:10412000F07020000000000000000000000000000F
:10413000000000000000000000000000000000007F
:1041400000000000000000008000000000000000EF
:1041500000000000000000000000000000FFFFFF62
:10416000FF00000000000000000000000000000050
:10417000000000008080000000000000000000003F
:10418000000000000000000000FFFFFE060606061B
:1041900006060606060606060606060606FFFFFFD4
:1041A000FF060606060606060606060606060606B6
:1041B000060606FFFFFFFF070200000000000000E8
:1041C000000000000000000000FFFFFF00000000F2
:1041D00000000000000000000000000000FFFFFFE2
:1041E000FF000000000000000000000000000000D0
:1041F000000000FFFFFFFF000000000000000000C3
:10420000000000000000000000FFFFFF1818181851
:1042100018181818181818181818181818FFFFFF69
:10422000FF18181818181818181818181818181827
:10423000181818FFFFFFFF0000000000000000003A
:10424000000000000000000002010100000000006A
:1042500000000000000000000000000000FFFFFF61
:10426000FF0000000000000000000000000000004F
:10427000000000010100000000000000000000003C
:10428000000000000000000000000000000000002E
:1042900000000000000000000000000000FFFFFF21
:1042A000FF0000000000000000000000000000000F
:1042B00000000000000000000000000000000000FE
:1042C00000000000000000000000000000000000EE
:1042D000000000000000000000000000001F1F0F91
:1042E0000F000000000000000000000000000000BF
:1042F00000000000000000000000000000000000BE
:10430000204300080000002048000000AC1A00080C
:10431000684300084800002080080000BC1A00081C
:1043200000A24A0400000000000000000102030493
:10433000060708090000000002040608000000004B
:10434000010203040102030406070809000000003B
:10435000000000000000000000000000000000005D
:08436000000000000000000055
:0400000508000131BD
:00000001FF
