:020000040800F2
:100000003004002045010008DB070008DD0200087D
:10001000D90700082F020008CD0C000800000000DE
:100020000000000000000000000000005909000866
:10003000310200080000000055080008310A0008DD
:100040005F0100085F0100085F0100085F01000810
:100050005F0100085F0100085F0100085F01000800
:100060005F0100085F0100085F0100085F010008F0
:100070005F0100085F0100085F0100085F010008E0
:100080005F0100085F0100085F0100085F010008D0
:100090005F0100085F0100085F0100085F010008C0
:1000A0005F0100085F0100085F0100085F010008B0
:1000B0005F0100085F0100085F0100085F010008A0
:1000C0005F0100085F0100085F0100085F01000890
:1000D0005F010008850A00085F0100085F01000851
:1000E0005F0100085F0100085F0100085F01000870
:1000F0005F0100085F0100085F0100085F01000860
:100100005F0100085F0100085F0100085F0100084F
:100110005F0100085F0100085F0100085F0100083F
:100120005F0100085F0100085F0100085F0100082F
:10013000DFF80CD000F04AF8004800473D100008F6
:10014000300400200648804706480047FEE7FEE7E7
:10015000FEE7FEE7FEE7FEE7FEE7FEE7FEE7FEE777
:10016000350A0008310100082DE9F05F054600203E
:1001700092469B4688460646814640241BE0284618
:1001800041464746224600F042F853465A46C01AB6
:10019000914110D311461846224600F029F82D1A35
:1001A00067EB01084F4622460120002100F020F8AD
:1001B00017EB00094E41201EA4F10104DFDC484684
:1001C00031462A464346BDE8F09F0000064C074DE5
:1001D00006E0E06840F0010394E807009847103417
:1001E000AC42F6D3FFF7A8FF001100082011000869
:1001F000202A04DB203A00FA02F1002070479140E7
:10020000C2F1200320FA03F3194390407047202ADB
:1002100004DB203A21FA02F00021704721FA02F3B0
:10022000D040C2F120029140084319467047FEE7D2
:1002300070472DE9F0410022CC7804F00F03E4066A
:1002400001D58C7823430C784FF00F0714F0FF0F83
:100250004FF0010C1CD005680CFA02F40E88264001
:10026000A64211D1960007FA06F825EA080503FA16
:1002700006F848EA0505CE78282E02D0482E02D08E
:1002800002E0446100E00461521C082AE4D30560E6
:100290000A88FF2A1ED94568002202F108060CFAD6
:1002A00006F40E882640A64210D1960007FA06F8FA
:1002B00025EA080503FA06F848EA0505CE78282E4F
:1002C00000D14461CE78482E00D10461521C082A26
:1002D000E3D34560BDE8F08101617047FEE7002986
:1002E00004D0018841F4806101807047018821F4C5
:1002F000806101807047034600209A8A1B8B1B0493
:100300001A4322F07F42914300D101207047002917
:1003100004D0018841F0010101807047018821F07B
:10032000010101807047000010B586B0012108204E
:1003300000F0AEFA0121480500F08EFA1C208DF87D
:100340001700C020ADF8140003208DF8160005A991
:100350001048FFF76EFF104C204600F021F82115E1
:10036000ADF80E100901ADF810100C4901914BF6D3
:10037000FF71ADF80A100021ADF80810ADF80C10AF
:1003800001A9204600F05AF801212046FFF7BFFFDF
:1003900006B010BD000C014000540040801A060059
:1003A00010B50C4988420AD101214C05204600F0C5
:1003B00061FA2046BDE81040002100F05BBA01213F
:1003C0008C05204600F056FA2046BDE8104000217A
:1003D00000F050BA00540040002904D0018841F4D4
:1003E000807101807047018821F48071018070471D
:1003F000002904D0018841F4007101807047018810
:1004000021F40071018070470CB502460020009273
:100410000A0F019221F07F41019A002A03D0009A2D
:100420001432009203E0090C009A18320092009AEC
:1004300012680A4200D001200CBD000070B586B0E1
:1004400004460D46A08820F03F0601A800F02EFAD1
:1004500003982849B0FBF1F189B20E43A6802288A7
:1004600022F001022280244B2A689A4209D85200C5
:10047000B0FBF2F080B2042800D20420491C218491
:1004800023E0EB88A3F53F46FF3E0BD002EBC2030F
:1004900003EB0212B0FBF2F080B240F480400205A0
:1004A00006D007E002EB4202B0FBF2F080B2F6E7C2
:1004B00040F0010040F400404FF4967251434FF475
:1004C0007A72B1FBF2F1491C2184A083208840F0AC
:1004D0000100208020884FF6F5310840A9886A89FC
:1004E000114301432180A88929890843208106B04E
:1004F00070BD000040420F00A08601002DE9F047CA
:100500008146884615461C46012000EB4900C6B2CC
:10051000DFF8D0A04FF4003739465046FFF774FF9C
:100520000028F9D101215046FFF756FF2E4F5046C3
:100530003946FFF7E0FE0028F9D04FEA4960010E86
:100540000022504600F059F8DFF8A0905046494686
:10055000FFF7D1FE0028F9D04146504600F056F88A
:10056000DFF8888008F1020841465046FFF7C3FED5
:100570000028F9D001215046FFF72EFF394650469A
:10058000FFF7B9FE0028F9D0314656460122304621
:1005900000F033F8144F7F1C39463046FFF7ABFEAE
:1005A0000028F9D0124F13E03CB900213046FFF784
:1005B00096FE01213046FFF71BFF39463046FFF714
:1005C00023FF0028F9D0304600F014F805F8010B9D
:1005D000641EE4B2E8D23046BDE8F0470121FFF7DF
:1005E0007EBE0000005400400100030082000700AE
:1005F00040000010008AC0B27047002A02D041F0CB
:10060000010101E001F0FE010182704701827047A3
:100610002DE9F04104460E461546204F4FF40038B0
:1006200041463846FFF7F0FE0028F9D1012138464F
:10063000FFF7D2FEDFF8688038464146FFF75BFEE1
:100640000028F9D06006010E3C4600222046FFF744
:10065000D4FF144F20463946FFF74DFE0028F9D04D
:1006600031462046FFF7D2FF0E4EB61E31462046D9
:10067000FFF741FE0028F9D029462046FFF7C6FFC4
:10068000084DAD1C29462046FFF735FE0028F9D05D
:100690002046BDE8F0410121FFF7AABE005400400A
:1006A000010003008200070013460A460146572056
:1006B000FFF724BF0A4601465720FFF7A9BF0000F5
:1006C00038B50121102000F0E3F804208DF8030074
:1006D000C402ADF8004003208DF80200044D6946C5
:1006E0002846FFF7A6FD21462846FFF7F5FD38BD51
:1006F0000010014010B5FFF7E3FFFFF715FEC8201B
:1007000000F076FCC0210220FFF7D4FF0021032077
:10071000FFF7D0FF00210420FFF7CCFF00210520C8
:10072000FFF7C8FF00210620FFF7C4FF0F210820B4
:10073000FFF7C0FF03210920FFF7BCFF27210A2094
:10074000FFF7B8FF24210C20FFF7B4FF24210D2070
:10075000FFF7B0FF7F211020FFF7ACFF2421BDE899
:100760001040FE20FFF7A6BF3EB504460D4601220D
:1007700002A90020FFF798FF012202A91046FFF707
:1007800093FF062269460720FFF78EFF9DF80000C1
:100790004FF6FF7101EA803020809DF8012001EAC8
:1007A0008212104420809DF80220104420809DF881
:1007B000030001EA803028809DF8042001EA8211BC
:1007C000084428809DF8051089080844288020885E
:1007D0002080288828803EBDFEE7704770B50F2333
:1007E000C27801260178002A1ED0144A126802F449
:1007F000E062C2F5E062120AC2F10404D340457817
:10080000A54082781A402A43120101F1E02181F8C3
:100810000024007800F01F018E404009800000F1A4
:10082000E020C0F8006170BD01F01F00864048095B
:10083000800000F1E020C0F8806170BD0CED00E0A8
:100840000249084302490860704700000000FA05A9
:100850000CED00E070470000054A002903D0D16983
:100860000143D1617047D1698143D1617047000074
:1008700000100240054A002903D0116901431161AB
:1008800070471169814311617047000000100240F8
:10089000054A002903D0916901439161704791692C
:1008A00081439161704700000010024010B5264A54
:1008B000516801F00C01254B002927D0042927D0CD
:1008C000082927D00360516801F0F0010909204B85
:1008D0005C5C0168E1404160546804F4E064240A0F
:1008E0001C5D21FA04F48460546804F46054E40A42
:1008F0001B5DD940C160526802F44042920B144B18
:100900001B1F9A5CB1FBF2F1016110BD0360DAE7D5
:100910000360D8E7516801F47011536803F4803321
:10092000022404EB914133B153689B0307D5094B73
:1009300059430160C7E7074B59430160C3E7034BC5
:1009400059430160BFE700000010024000127A0026
:100950001C00002000093D007047000010B5064C47
:100960000146204600F0AEF98021204600F0D4F880
:100970000028F9D010BD000000380140AFF300801E
:100980000CB50022019200922748016841F48031A1
:1009900001604FF4A063016801F4003100910199F6
:1009A000491C0191009911B901999942F3D101684B
:1009B000890302D50121009100E0009200990129EC
:1009C00030D11A490A6842F010020A600A6822F01F
:1009D00003020A600A6842F002020A60416841604C
:1009E00041684160416841F480614160416821F49F
:1009F0007C114160416841F4E8114160016841F0B7
:100A00008071016001688901FCD5416821F0030112
:100A10004160416841F0020141604168C1F38101D8
:100A20000229FAD10CBD0000001002400020024053
:100A300000F0F2BA10B50F48016841F00101016001
:100A400041680D4A1140416001680C4A1140016043
:100A5000016821F480210160416821F4FE014160B8
:100A60004FF41F018160FFF789FF05494FF00060D7
:100A7000086010BD001002400000FFF8FFFFF6FE06
:100A800008ED00E010B5094C40F22551204600F079
:100A90004AF8002808D0204600F010F9C1B2BDE89D
:100AA000104003A000F014B910BD00000038014050
:100AB00025630D0A00000000002904D0818941F45B
:100AC000005181817047818921F4005181817047F3
:100AD00038B5012144F20400FFF7DAFE4FF400704C
:100AE000ADF8000018208DF8030001248DF80240B5
:100AF000084D69462846FFF79CFBA102ADF800109F
:100B000004218DF803108DF8024069462846FFF74E
:100B100090FB38BD000801400246002012880A42BE
:100B200000D00120704770B5002440F66A12C1F36E
:100B3000421301F01F05012606FA05F2012B0CD025
:100B4000022B0DD0838A1340090A8E400088304062
:100B50000BB100B10124204670BD83891340F3E737
:100B6000038A1340F0E710B540F66A13C1F342134D
:100B700001F01F040121A140012B07D0022B07D057
:100B800014303AB102680A43026010BD0C30F8E735
:100B90001030F6E702688A43026010BD30B585B0B8
:100BA00004460D46208A4CF6FF710840E98801434F
:100BB0002182A0894EF6F3110840A9882A891143A1
:100BC0006A8902431143A181A08A4FF6FF41084080
:100BD000A9890143A1826846FFF768FE1D48844247
:100BE00001D1039800E00298A189090408D500EB1F
:100BF000C00101EB001029684900B0FBF1F007E0EB
:100C000000EBC00101EB001029688900B0FBF1F096
:100C10006422B0FBF2F109010B096FF018056B4378
:100C200000EB8300A3891D044FF0320307D503EBCB
:100C3000C000B0FBF2F000F00700084306E003EB51
:100C40000010B0FBF2F000F00F000843208105B067
:100C500030BD00000038014010B586B04FF4E130DF
:100C600001900020ADF80800ADF80A00ADF80C00C6
:100C7000ADF810000C20ADF80E000F4C01A9204675
:100C8000FFF78CFF012240F225512046FFF76BFF52
:100C900001212046FFF710FF25208DF814000120C8
:100CA0008DF817008DF815008DF8160005A8FFF7D0
:100CB00095FD06B010BD0000003801408088C0F3EB
:100CC00008007047C1F3080181807047FEE700000B
:100CD0000FB4054B10B503A9044A029800F028F898
:100CE00010BC5DF814FB00002D1000082C00002043
:100CF0000907090E002804DB00F1E02080F8001449
:100D0000704700F00F0000F1E02080F8141D7047DC
:100D100002E008C8121F08C1002AFAD170477047C4
:100D2000002001E001C1121F002AFBD17047000022
:100D30002DE9FF4F8DB09B460F460446002606E086
:100D400025280BD05A460F999047641C761C2078B2
:100D50000028F5D111B03046BDE8F08F0025A84637
:100D60000122984900E0054314F8013F203B02FAB4
:100D700003F00842F7D120782E2817D114F8010F7C
:100D800045F004052A280ED06FF02F022078A0F13C
:100D9000300109290AD808EB880102EB410100EB78
:100DA0000108641CF2E757F8048B641C20786C2857
:100DB0000DD004DC4C2812D06A2811D104E074282C
:100DC0000DD07A280CD10AE045F4001507E06178CF
:100DD00045F48015814202D1641C05F58015641C20
:100DE0002278692A45D008DC002AB3D0582A69D075
:100DF000632A10D0642A08D13BE0702A67D0732A96
:100E000013D0752A5CD0782A5CD010465A460F99C8
:100E10009047761CD3E017F8040B8DF800000020F3
:100E20008DF80100E946012003E057F8049B4FF0DC
:100E3000FF3069074FF0000501D40AE06D1C4545FD
:100E40000DDA8542FADB19F805100029F6D106E023
:100E50006D1C8542FCDB19F805100029F8D12E44E1
:100E600004E019F8010B5A460F9990476D1EF8D20D
:100E7000A5E00A200021CDE90801C5F302500228AF
:100E80000DD001CFC117031E71F100030DDA4FF031
:100E9000000CD0EB0C006CEB01012D2308E0FF1DD2
:100EA00027F00707F7E80201EDE72B0504D52B2310
:100EB0008DF8283001233BE0EB0739D02023F7E7FA
:100EC0000A2000E010200021CDE9080107E01020F1
:100ED000002145F00405CDE908014FF00808C5F3ED
:100EE000025002280FD001CF00214FF0000A2B073B
:100EF0001FD5702A0DD0DDE908C38CF0100C5CEA18
:100F0000030C0CD015E0FF1D27F00707F7E80201DE
:100F1000EBE740228DF828204FF0010A0BE050EA61
:100F2000010306D030238DF828308DF829200223C4
:100F30009A46582A04D024A20DF120090B9209E008
:100F400026A2F9E7DDE90823FFF70EF90B9B9B5C6E
:100F500009F8013D50EA0102F4D1ADEB090020305F
:100F60000890680701D44FF001080899884502DD10
:100F7000A8EB010000E000208046002506E00AA85A
:100F80005A46405D0F9990476D1C761C5545F6DB1F
:100F900004E030205A460F999047761CB8F10001C2
:100FA000A8F10108F5DC05E019F8010B5A460F9984
:100FB0009047761C0899481E08900029F4DC641CB0
:100FC000C5E60000092801003031323334353637A8
:100FD0003839616263646566000000003031323385
:100FE0003435363738394142434445460000000025
:100FF0004FF47A7148430349086008680028FCD11F
:1010000070470000140000200249086008680028AA
:10101000FCD170471400002003480168002902D069
:101020000168491E016070471400002010B5044695
:10103000E0B2FFF793FC204610BD00001CB54FF452
:10104000A060FFF7FDFB00F035F8FFF741FDFFF76B
:1010500003FEFFF74FFB0DA0FFF73AFE0220FFF75C
:10106000D3FF4FF47A74694601A8FFF77DFBBDF802
:1010700004100AA0FFF72CFEBDF800100AA0FFF72D
:1010800027FE2046FFF7B4FFEDE70000737461729E
:10109000745F696E69740D0A00000000705F72650C
:1010A000643D25640D0A0000705F69723D25640D82
:1010B0000A00000070B5104810490068B0FBF1F15B
:1010C000491E4FF0FF35B1F1807F01D301210BE0C4
:1010D0004FF0E02461610F212846FFF709FE002050
:1010E000A06107202061002101B1FEE72846BDE88C
:1010F00070400021FFF7FCBD0000002000350C000F
:10110000201100080000002030000000100D000831
:10111000501100083000002000040000200D0008DD
:1011200000A24A04000000000000000001020304C5
:10113000060708090000000002040608000000007D
:10114000010203040102030406070809000000006D
:0400000508000131BD
:00000001FF
